{
  "contractName": "Simple",
  "abi": [
    {
      "inputs": [
        {
          "internalType": "address",
          "name": "newOwner",
          "type": "address"
        }
      ],
      "stateMutability": "payable",
      "type": "constructor"
    },
    {
      "anonymous": false,
      "inputs": [
        {
          "indexed": true,
          "internalType": "address",
          "name": "previousOwner",
          "type": "address"
        },
        {
          "indexed": true,
          "internalType": "address",
          "name": "newOwner",
          "type": "address"
        }
      ],
      "name": "OwnershipTransferred",
      "type": "event"
    },
    {
      "anonymous": false,
      "inputs": [
        {
          "indexed": false,
          "internalType": "string",
          "name": "contentHash",
          "type": "string"
        },
        {
          "indexed": false,
          "internalType": "string",
          "name": "previewHash",
          "type": "string"
        },
        {
          "indexed": false,
          "internalType": "uint256",
          "name": "price",
          "type": "uint256"
        },
        {
          "indexed": true,
          "internalType": "address",
          "name": "creator",
          "type": "address"
        }
      ],
      "name": "PostCreated",
      "type": "event"
    },
    {
      "anonymous": false,
      "inputs": [
        {
          "indexed": true,
          "internalType": "address",
          "name": "purchaser",
          "type": "address"
        },
        {
          "indexed": true,
          "internalType": "uint256",
          "name": "postId",
          "type": "uint256"
        }
      ],
      "name": "PostPurchased",
      "type": "event"
    },
    {
      "anonymous": false,
      "inputs": [
        {
          "indexed": false,
          "internalType": "string",
          "name": "contentHash",
          "type": "string"
        },
        {
          "indexed": false,
          "internalType": "string",
          "name": "previewHash",
          "type": "string"
        },
        {
          "indexed": false,
          "internalType": "uint256",
          "name": "price",
          "type": "uint256"
        },
        {
          "indexed": true,
          "internalType": "address",
          "name": "creator",
          "type": "address"
        }
      ],
      "name": "PostUpdated",
      "type": "event"
    },
    {
      "inputs": [
        {
          "internalType": "uint256",
          "name": "",
          "type": "uint256"
        },
        {
          "internalType": "address",
          "name": "",
          "type": "address"
        }
      ],
      "name": "ownedBy",
      "outputs": [
        {
          "internalType": "bool",
          "name": "",
          "type": "bool"
        }
      ],
      "stateMutability": "view",
      "type": "function"
    },
    {
      "inputs": [
        {
          "internalType": "uint256",
          "name": "",
          "type": "uint256"
        },
        {
          "internalType": "uint256",
          "name": "",
          "type": "uint256"
        }
      ],
      "name": "ownedByArray",
      "outputs": [
        {
          "internalType": "address",
          "name": "",
          "type": "address"
        }
      ],
      "stateMutability": "view",
      "type": "function"
    },
    {
      "inputs": [],
      "name": "owner",
      "outputs": [
        {
          "internalType": "address",
          "name": "",
          "type": "address"
        }
      ],
      "stateMutability": "view",
      "type": "function"
    },
    {
      "inputs": [
        {
          "internalType": "uint256",
          "name": "",
          "type": "uint256"
        }
      ],
      "name": "posts",
      "outputs": [
        {
          "internalType": "uint256",
          "name": "price",
          "type": "uint256"
        },
        {
          "internalType": "address",
          "name": "creator",
          "type": "address"
        },
        {
          "internalType": "string",
          "name": "contentHash",
          "type": "string"
        },
        {
          "internalType": "string",
          "name": "previewHash",
          "type": "string"
        },
        {
          "internalType": "bool",
          "name": "privatelyHosted",
          "type": "bool"
        }
      ],
      "stateMutability": "view",
      "type": "function"
    },
    {
      "inputs": [
        {
          "internalType": "address",
          "name": "",
          "type": "address"
        },
        {
          "internalType": "uint256",
          "name": "",
          "type": "uint256"
        }
      ],
      "name": "postsOwned",
      "outputs": [
        {
          "internalType": "bool",
          "name": "",
          "type": "bool"
        }
      ],
      "stateMutability": "view",
      "type": "function"
    },
    {
      "inputs": [],
      "name": "renounceOwnership",
      "outputs": [],
      "stateMutability": "nonpayable",
      "type": "function"
    },
    {
      "inputs": [
        {
          "internalType": "address",
          "name": "newOwner",
          "type": "address"
        }
      ],
      "name": "transferOwnership",
      "outputs": [],
      "stateMutability": "nonpayable",
      "type": "function"
    },
    {
      "inputs": [
        {
          "internalType": "string",
          "name": "contentHash",
          "type": "string"
        },
        {
          "internalType": "string",
          "name": "previewHash",
          "type": "string"
        },
        {
          "internalType": "uint256",
          "name": "price",
          "type": "uint256"
        }
      ],
      "name": "createPost",
      "outputs": [],
      "stateMutability": "nonpayable",
      "type": "function"
    },
    {
      "inputs": [
        {
          "internalType": "uint256",
          "name": "postId",
          "type": "uint256"
        },
        {
          "internalType": "uint256",
          "name": "price",
          "type": "uint256"
        },
        {
          "internalType": "string",
          "name": "contentHash",
          "type": "string"
        },
        {
          "internalType": "string",
          "name": "previewHash",
          "type": "string"
        }
      ],
      "name": "updatePost",
      "outputs": [],
      "stateMutability": "nonpayable",
      "type": "function"
    },
    {
      "inputs": [
        {
          "internalType": "address",
          "name": "purchaser",
          "type": "address"
        },
        {
          "internalType": "uint256",
          "name": "postId",
          "type": "uint256"
        }
      ],
      "name": "purchasePost",
      "outputs": [],
      "stateMutability": "payable",
      "type": "function"
    },
    {
      "inputs": [
        {
          "internalType": "address",
          "name": "newTreasury",
          "type": "address"
        }
      ],
      "name": "setTreasury",
      "outputs": [],
      "stateMutability": "nonpayable",
      "type": "function"
    }
  ],
  "bytecode": "0x6080604052600060075560405162001ff738038062001ff783398181016040528101906200002e9190620001dd565b6200004e62000042620000a760201b60201c565b620000af60201b60201c565b6200005f81620000af60201b60201c565b80600860006101000a81548173ffffffffffffffffffffffffffffffffffffffff021916908373ffffffffffffffffffffffffffffffffffffffff160217905550506200020f565b600033905090565b60008060009054906101000a900473ffffffffffffffffffffffffffffffffffffffff169050816000806101000a81548173ffffffffffffffffffffffffffffffffffffffff021916908373ffffffffffffffffffffffffffffffffffffffff1602179055508173ffffffffffffffffffffffffffffffffffffffff168173ffffffffffffffffffffffffffffffffffffffff167f8be0079c531659141344cd1fd0a4f28419497f9722a3daafe3b4186f6b6457e060405160405180910390a35050565b600080fd5b600073ffffffffffffffffffffffffffffffffffffffff82169050919050565b6000620001a58262000178565b9050919050565b620001b78162000198565b8114620001c357600080fd5b50565b600081519050620001d781620001ac565b92915050565b600060208284031215620001f657620001f562000173565b5b60006200020684828501620001c6565b91505092915050565b611dd8806200021f6000396000f3fe60806040526004361061009c5760003560e01c8063742d931a11610064578063742d931a146101b05780638da5cb5b146101d9578063b090b65f14610204578063eb80ff6d14610220578063f0f4426014610249578063f2fde38b146102725761009c565b80630b1e7f83146100a157806336c1b904146100e2578063515338871461011f57806353f1b3ea1461015c578063715018a614610199575b600080fd5b3480156100ad57600080fd5b506100c860048036038101906100c391906111a9565b61029b565b6040516100d99594939291906112d1565b60405180910390f35b3480156100ee57600080fd5b506101096004803603810190610104919061135e565b61040e565b604051610116919061139e565b60405180910390f35b34801561012b57600080fd5b50610146600480360381019061014191906113b9565b61043d565b60405161015391906113f9565b60405180910390f35b34801561016857600080fd5b50610183600480360381019061017e9190611414565b61048b565b604051610190919061139e565b60405180910390f35b3480156101a557600080fd5b506101ae6104ba565b005b3480156101bc57600080fd5b506101d760048036038101906101d291906114b9565b6104ce565b005b3480156101e557600080fd5b506101ee6106bf565b6040516101fb91906113f9565b60405180910390f35b61021e60048036038101906102199190611414565b6106e8565b005b34801561022c57600080fd5b506102476004803603810190610242919061154e565b610caf565b005b34801561025557600080fd5b50610270600480360381019061026b91906115f5565b610f2c565b005b34801561027e57600080fd5b50610299600480360381019061029491906115f5565b610f78565b005b60046020528060005260406000206000915090508060000154908060010160009054906101000a900473ffffffffffffffffffffffffffffffffffffffff16908060020180546102ea90611651565b80601f016020809104026020016040519081016040528092919081815260200182805461031690611651565b80156103635780601f1061033857610100808354040283529160200191610363565b820191906000526020600020905b81548152906001019060200180831161034657829003601f168201915b50505050509080600301805461037890611651565b80601f01602080910402602001604051908101604052809291908181526020018280546103a490611651565b80156103f15780601f106103c6576101008083540402835291602001916103f1565b820191906000526020600020905b8154815290600101906020018083116103d457829003601f168201915b5050505050908060040160009054906101000a900460ff16905085565b60036020528160005260406000206020528060005260406000206000915091509054906101000a900460ff1681565b6002602052816000526040600020818154811061045957600080fd5b906000526020600020016000915091509054906101000a900473ffffffffffffffffffffffffffffffffffffffff1681565b60066020528160005260406000206020528060005260406000206000915091509054906101000a900460ff1681565b6104c2610ffb565b6104cc6000611079565b565b6104d8600161113d565b60006104e46001611153565b90506040518060a001604052808381526020013373ffffffffffffffffffffffffffffffffffffffff16815260200187878080601f016020809104026020016040519081016040528093929190818152602001838380828437600081840152601f19601f82011690508083019250505050505050815260200185858080601f016020809104026020016040519081016040528093929190818152602001838380828437600081840152601f19601f82011690508083019250505050505050815260200160001515815250600460008381526020019081526020016000206000820151816000015560208201518160010160006101000a81548173ffffffffffffffffffffffffffffffffffffffff021916908373ffffffffffffffffffffffffffffffffffffffff1602179055506040820151816002019081610627919061185d565b50606082015181600301908161063d919061185d565b5060808201518160040160006101000a81548160ff0219169083151502179055509050503373ffffffffffffffffffffffffffffffffffffffff167f67d7c5d5722b1111c2cfcbdd0a1bb0f68912cc9d69372906bd37128042cfb0ab87878787876040516106af95949392919061196b565b60405180910390a2505050505050565b60008060009054906101000a900473ffffffffffffffffffffffffffffffffffffffff16905090565b6000600460008381526020019081526020016000206040518060a0016040529081600082015481526020016001820160009054906101000a900473ffffffffffffffffffffffffffffffffffffffff1673ffffffffffffffffffffffffffffffffffffffff1673ffffffffffffffffffffffffffffffffffffffff16815260200160028201805461077890611651565b80601f01602080910402602001604051908101604052809291908181526020018280546107a490611651565b80156107f15780601f106107c6576101008083540402835291602001916107f1565b820191906000526020600020905b8154815290600101906020018083116107d457829003601f168201915b5050505050815260200160038201805461080a90611651565b80601f016020809104026020016040519081016040528092919081815260200182805461083690611651565b80156108835780601f1061085857610100808354040283529160200191610883565b820191906000526020600020905b81548152906001019060200180831161086657829003601f168201915b505050505081526020016004820160009054906101000a900460ff161515151581525050905080600001513410156108f0576040517f08c379a00000000000000000000000000000000000000000000000000000000081526004016108e790611a00565b60405180910390fd5b6000816020015190506000600860009054906101000a900473ffffffffffffffffffffffffffffffffffffffff1690506000600754346109309190611a4f565b9050600081346109409190611a91565b905060008473ffffffffffffffffffffffffffffffffffffffff168260405161096890611af6565b60006040518083038185875af1925050503d80600081146109a5576040519150601f19603f3d011682016040523d82523d6000602084013e6109aa565b606091505b50509050806109ee576040517f08c379a00000000000000000000000000000000000000000000000000000000081526004016109e590611b7d565b60405180910390fd5b6000831115610aa55760008473ffffffffffffffffffffffffffffffffffffffff1683604051610a1d90611af6565b60006040518083038185875af1925050503d8060008114610a5a576040519150601f19603f3d011682016040523d82523d6000602084013e610a5f565b606091505b5050905080610aa3576040517f08c379a0000000000000000000000000000000000000000000000000000000008152600401610a9a90611be9565b60405180910390fd5b505b60016003600089815260200190815260200160002060008a73ffffffffffffffffffffffffffffffffffffffff1673ffffffffffffffffffffffffffffffffffffffff16815260200190815260200160002060006101000a81548160ff0219169083151502179055506001600660008a73ffffffffffffffffffffffffffffffffffffffff1673ffffffffffffffffffffffffffffffffffffffff168152602001908152602001600020600089815260200190815260200160002060006101000a81548160ff0219169083151502179055508760026000898152602001908152602001600020600260008a81526020019081526020016000208054905081548110610bb357610bb2611c09565b5b9060005260206000200160006101000a81548173ffffffffffffffffffffffffffffffffffffffff021916908373ffffffffffffffffffffffffffffffffffffffff160217905550600560008973ffffffffffffffffffffffffffffffffffffffff1673ffffffffffffffffffffffffffffffffffffffff168152602001908152602001600020879080600181540180825580915050600190039060005260206000200160009091909190915055868873ffffffffffffffffffffffffffffffffffffffff167ffd656fb685c341681b462ffa5be492574215a3624ad9d12486dc6b090ba304fe60405160405180910390a35050505050505050565b6004600087815260200190815260200160002060010160009054906101000a900473ffffffffffffffffffffffffffffffffffffffff1673ffffffffffffffffffffffffffffffffffffffff163373ffffffffffffffffffffffffffffffffffffffff1614610d53576040517f08c379a0000000000000000000000000000000000000000000000000000000008152600401610d4a90611c84565b60405180910390fd5b6040518060a001604052808681526020013373ffffffffffffffffffffffffffffffffffffffff16815260200185858080601f016020809104026020016040519081016040528093929190818152602001838380828437600081840152601f19601f82011690508083019250505050505050815260200183838080601f016020809104026020016040519081016040528093929190818152602001838380828437600081840152601f19601f82011690508083019250505050505050815260200160001515815250600460008881526020019081526020016000206000820151816000015560208201518160010160006101000a81548173ffffffffffffffffffffffffffffffffffffffff021916908373ffffffffffffffffffffffffffffffffffffffff1602179055506040820151816002019081610e94919061185d565b506060820151816003019081610eaa919061185d565b5060808201518160040160006101000a81548160ff0219169083151502179055509050503373ffffffffffffffffffffffffffffffffffffffff167f5504c7424ef7e7947cd1af214505f712d9a528280c7b8ef7ca87d62ea31c7f61858585858a604051610f1c95949392919061196b565b60405180910390a2505050505050565b610f34610ffb565b80600860006101000a81548173ffffffffffffffffffffffffffffffffffffffff021916908373ffffffffffffffffffffffffffffffffffffffff16021790555050565b610f80610ffb565b600073ffffffffffffffffffffffffffffffffffffffff168173ffffffffffffffffffffffffffffffffffffffff1603610fef576040517f08c379a0000000000000000000000000000000000000000000000000000000008152600401610fe690611d16565b60405180910390fd5b610ff881611079565b50565b611003611161565b73ffffffffffffffffffffffffffffffffffffffff166110216106bf565b73ffffffffffffffffffffffffffffffffffffffff1614611077576040517f08c379a000000000000000000000000000000000000000000000000000000000815260040161106e90611d82565b60405180910390fd5b565b60008060009054906101000a900473ffffffffffffffffffffffffffffffffffffffff169050816000806101000a81548173ffffffffffffffffffffffffffffffffffffffff021916908373ffffffffffffffffffffffffffffffffffffffff1602179055508173ffffffffffffffffffffffffffffffffffffffff168173ffffffffffffffffffffffffffffffffffffffff167f8be0079c531659141344cd1fd0a4f28419497f9722a3daafe3b4186f6b6457e060405160405180910390a35050565b6001816000016000828254019250508190555050565b600081600001549050919050565b600033905090565b600080fd5b600080fd5b6000819050919050565b61118681611173565b811461119157600080fd5b50565b6000813590506111a38161117d565b92915050565b6000602082840312156111bf576111be611169565b5b60006111cd84828501611194565b91505092915050565b6111df81611173565b82525050565b600073ffffffffffffffffffffffffffffffffffffffff82169050919050565b6000611210826111e5565b9050919050565b61122081611205565b82525050565b600081519050919050565b600082825260208201905092915050565b60005b83811015611260578082015181840152602081019050611245565b60008484015250505050565b6000601f19601f8301169050919050565b600061128882611226565b6112928185611231565b93506112a2818560208601611242565b6112ab8161126c565b840191505092915050565b60008115159050919050565b6112cb816112b6565b82525050565b600060a0820190506112e660008301886111d6565b6112f36020830187611217565b8181036040830152611305818661127d565b90508181036060830152611319818561127d565b905061132860808301846112c2565b9695505050505050565b61133b81611205565b811461134657600080fd5b50565b60008135905061135881611332565b92915050565b6000806040838503121561137557611374611169565b5b600061138385828601611194565b925050602061139485828601611349565b9150509250929050565b60006020820190506113b360008301846112c2565b92915050565b600080604083850312156113d0576113cf611169565b5b60006113de85828601611194565b92505060206113ef85828601611194565b9150509250929050565b600060208201905061140e6000830184611217565b92915050565b6000806040838503121561142b5761142a611169565b5b600061143985828601611349565b925050602061144a85828601611194565b9150509250929050565b600080fd5b600080fd5b600080fd5b60008083601f84011261147957611478611454565b5b8235905067ffffffffffffffff81111561149657611495611459565b5b6020830191508360018202830111156114b2576114b161145e565b5b9250929050565b6000806000806000606086880312156114d5576114d4611169565b5b600086013567ffffffffffffffff8111156114f3576114f261116e565b5b6114ff88828901611463565b9550955050602086013567ffffffffffffffff8111156115225761152161116e565b5b61152e88828901611463565b9350935050604061154188828901611194565b9150509295509295909350565b6000806000806000806080878903121561156b5761156a611169565b5b600061157989828a01611194565b965050602061158a89828a01611194565b955050604087013567ffffffffffffffff8111156115ab576115aa61116e565b5b6115b789828a01611463565b9450945050606087013567ffffffffffffffff8111156115da576115d961116e565b5b6115e689828a01611463565b92509250509295509295509295565b60006020828403121561160b5761160a611169565b5b600061161984828501611349565b91505092915050565b7f4e487b7100000000000000000000000000000000000000000000000000000000600052602260045260246000fd5b6000600282049050600182168061166957607f821691505b60208210810361167c5761167b611622565b5b50919050565b7f4e487b7100000000000000000000000000000000000000000000000000000000600052604160045260246000fd5b60008190508160005260206000209050919050565b60006020601f8301049050919050565b600082821b905092915050565b6000600883026117137fffffffffffffffffffffffffffffffffffffffffffffffffffffffffffffffff826116d6565b61171d86836116d6565b95508019841693508086168417925050509392505050565b6000819050919050565b600061175a61175561175084611173565b611735565b611173565b9050919050565b6000819050919050565b6117748361173f565b61178861178082611761565b8484546116e3565b825550505050565b600090565b61179d611790565b6117a881848461176b565b505050565b5b818110156117cc576117c1600082611795565b6001810190506117ae565b5050565b601f821115611811576117e2816116b1565b6117eb846116c6565b810160208510156117fa578190505b61180e611806856116c6565b8301826117ad565b50505b505050565b600082821c905092915050565b600061183460001984600802611816565b1980831691505092915050565b600061184d8383611823565b9150826002028217905092915050565b61186682611226565b67ffffffffffffffff81111561187f5761187e611682565b5b6118898254611651565b6118948282856117d0565b600060209050601f8311600181146118c757600084156118b5578287015190505b6118bf8582611841565b865550611927565b601f1984166118d5866116b1565b60005b828110156118fd578489015182556001820191506020850194506020810190506118d8565b8683101561191a5784890151611916601f891682611823565b8355505b6001600288020188555050505b505050505050565b82818337600083830152505050565b600061194a8385611231565b935061195783858461192f565b6119608361126c565b840190509392505050565b6000606082019050818103600083015261198681878961193e565b9050818103602083015261199b81858761193e565b90506119aa60408301846111d6565b9695505050505050565b7f706179206d6f7265000000000000000000000000000000000000000000000000600082015250565b60006119ea600883611231565b91506119f5826119b4565b602082019050919050565b60006020820190508181036000830152611a19816119dd565b9050919050565b7f4e487b7100000000000000000000000000000000000000000000000000000000600052601160045260246000fd5b6000611a5a82611173565b9150611a6583611173565b9250828202611a7381611173565b91508282048414831517611a8a57611a89611a20565b5b5092915050565b6000611a9c82611173565b9150611aa783611173565b9250828203905081811115611abf57611abe611a20565b5b92915050565b600081905092915050565b50565b6000611ae0600083611ac5565b9150611aeb82611ad0565b600082019050919050565b6000611b0182611ad3565b9150819050919050565b7f4661696c656420746f2073656e64207061796d656e7420746f2063726561746f60008201527f7200000000000000000000000000000000000000000000000000000000000000602082015250565b6000611b67602183611231565b9150611b7282611b0b565b604082019050919050565b60006020820190508181036000830152611b9681611b5a565b9050919050565b7f4661696c656420746f2073656e642066656520746f2075730000000000000000600082015250565b6000611bd3601883611231565b9150611bde82611b9d565b602082019050919050565b60006020820190508181036000830152611c0281611bc6565b9050919050565b7f4e487b7100000000000000000000000000000000000000000000000000000000600052603260045260246000fd5b7f6e6f7420757220706f7374000000000000000000000000000000000000000000600082015250565b6000611c6e600b83611231565b9150611c7982611c38565b602082019050919050565b60006020820190508181036000830152611c9d81611c61565b9050919050565b7f4f776e61626c653a206e6577206f776e657220697320746865207a65726f206160008201527f6464726573730000000000000000000000000000000000000000000000000000602082015250565b6000611d00602683611231565b9150611d0b82611ca4565b604082019050919050565b60006020820190508181036000830152611d2f81611cf3565b9050919050565b7f4f776e61626c653a2063616c6c6572206973206e6f7420746865206f776e6572600082015250565b6000611d6c602083611231565b9150611d7782611d36565b602082019050919050565b60006020820190508181036000830152611d9b81611d5f565b905091905056fea264697066735822122003ca9eafffc0b1bfbb76272173175f64db41199b7b945d18c46c36012e65115a64736f6c63430008130033",
  "immutableReferences": {},
  "source": "// SPDX-License-Identifier: MIT\npragma solidity ^0.8.19;\nimport \"../../node_modules/@ganache/console.log/console.sol\";\nimport \"../../node_modules/@openzeppelin/contracts/utils/Counters.sol\";\nimport \"../../node_modules/@openzeppelin/contracts/access/Ownable.sol\";\n\ncontract Simple is Ownable {\n    using Counters for Counters.Counter;\n    Counters.Counter private _postIds;\n\n    event PostCreated(\n        string contentHash,\n        string previewHash,\n        uint256 price,\n        address indexed creator\n    );\n\n    event PostUpdated(\n        string contentHash,\n        string previewHash,\n        uint256 price,\n        address indexed creator\n    );\n\n    event PostPurchased(address indexed purchaser, uint256 indexed postId);\n\n    struct post {\n        uint256 price;\n        address creator;\n        string contentHash;\n        string previewHash;\n        bool privatelyHosted;\n    }\n\n    mapping(uint256 => address[]) public ownedByArray;\n    mapping(uint256 => mapping(address => bool)) public ownedBy;\n    mapping(uint256 => post) public posts;\n    mapping(address => uint256[]) postsOwnedArray;\n    mapping(address => mapping(uint256 => bool)) public postsOwned;\n    uint256 protocolFee = 0;\n    address protocolTreasury;\n\n    constructor(address newOwner) payable {\n        _transferOwnership(newOwner);\n        protocolTreasury = newOwner;\n    }\n\n    function createPost(\n        string calldata contentHash,\n        string calldata previewHash,\n        uint256 price\n    ) public {\n        _postIds.increment();\n        uint256 postId = _postIds.current();\n        posts[postId] = post({\n            contentHash: contentHash,\n            previewHash: previewHash,\n            price: price,\n            creator: msg.sender,\n            privatelyHosted: false\n        });\n\n        emit PostCreated(contentHash, previewHash, price, msg.sender);\n    }\n\n    function updatePost(\n        uint256 postId,\n        uint256 price,\n        string calldata contentHash,\n        string calldata previewHash\n    ) public {\n        require(msg.sender == posts[postId].creator, \"not ur post\");\n        posts[postId] = post({\n            creator: msg.sender,\n            price: price,\n            contentHash: contentHash,\n            previewHash: previewHash,\n            privatelyHosted: false\n        });\n\n        emit PostUpdated(contentHash, previewHash, price, msg.sender);\n    }\n\n    function purchasePost(address purchaser, uint256 postId) public payable {\n        post memory p = posts[postId];\n        require(msg.value >= p.price, \"pay more\");\n        address payable addy = payable(p.creator);\n        address payable protoAddy = payable(protocolTreasury);\n        uint256 fee = msg.value * protocolFee;\n        uint256 royalties = msg.value - fee;\n\n        (bool success, ) = addy.call{value: royalties}(\"\");\n        require(success, \"Failed to send payment to creator\");\n\n        if (fee > 0) {\n            (bool successProto, ) = protoAddy.call{value: royalties}(\"\");\n            require(successProto, \"Failed to send fee to us\");\n        }\n\n        ownedBy[postId][purchaser] = true;\n        postsOwned[purchaser][postId] = true;\n\n        ownedByArray[postId][ownedByArray[postId].length] = purchaser;\n        postsOwnedArray[purchaser].push(postId);\n\n        emit PostPurchased(purchaser, postId);\n    }\n\n    function setTreasury(address newTreasury) external onlyOwner {\n        protocolTreasury = newTreasury;\n    }\n}\n",
  "sourcePath": "/Users/KaplanN/repos/BuidlProject/truffle/contracts/ethereum/Simple.sol",
  "compiler": {
    "name": "solc",
    "version": "0.8.19+commit.7dd6d404.Emscripten.clang"
  },
  "schemaVersion": "3.4.12",
  "updatedAt": "2023-03-01T22:34:31.587Z",
  "devdoc": {
    "kind": "dev",
    "methods": {
      "owner()": {
        "details": "Returns the address of the current owner."
      },
      "renounceOwnership()": {
        "details": "Leaves the contract without owner. It will not be possible to call `onlyOwner` functions anymore. Can only be called by the current owner. NOTE: Renouncing ownership will leave the contract without an owner, thereby removing any functionality that is only available to the owner."
      },
      "transferOwnership(address)": {
        "details": "Transfers ownership of the contract to a new account (`newOwner`). Can only be called by the current owner."
      }
    },
    "version": 1
  },
  "userdoc": {
    "kind": "user",
    "methods": {},
    "version": 1
  }
}