{
  "_format": "hh-sol-artifact-1",
  "contractName": "Simple",
  "sourceName": "contracts/Simple.sol",
  "abi": [
    {
      "inputs": [
        {
          "internalType": "address",
          "name": "newOwner",
          "type": "address"
        }
      ],
      "stateMutability": "payable",
      "type": "constructor"
    },
    {
      "anonymous": false,
      "inputs": [
        {
          "indexed": true,
          "internalType": "address",
          "name": "previousOwner",
          "type": "address"
        },
        {
          "indexed": true,
          "internalType": "address",
          "name": "newOwner",
          "type": "address"
        }
      ],
      "name": "OwnershipTransferred",
      "type": "event"
    },
    {
      "anonymous": false,
      "inputs": [
        {
          "indexed": false,
          "internalType": "string",
          "name": "contentHash",
          "type": "string"
        },
        {
          "indexed": false,
          "internalType": "string",
          "name": "previewHash",
          "type": "string"
        },
        {
          "indexed": false,
          "internalType": "uint256",
          "name": "price",
          "type": "uint256"
        },
        {
          "indexed": true,
          "internalType": "address",
          "name": "creator",
          "type": "address"
        }
      ],
      "name": "PostCreated",
      "type": "event"
    },
    {
      "anonymous": false,
      "inputs": [
        {
          "indexed": true,
          "internalType": "uint256",
          "name": "postId",
          "type": "uint256"
        }
      ],
      "name": "PostDisabled",
      "type": "event"
    },
    {
      "anonymous": false,
      "inputs": [
        {
          "indexed": true,
          "internalType": "uint256",
          "name": "postId",
          "type": "uint256"
        }
      ],
      "name": "PostEnabled",
      "type": "event"
    },
    {
      "anonymous": false,
      "inputs": [
        {
          "indexed": true,
          "internalType": "address",
          "name": "purchaser",
          "type": "address"
        },
        {
          "indexed": true,
          "internalType": "uint256",
          "name": "postId",
          "type": "uint256"
        }
      ],
      "name": "PostPurchased",
      "type": "event"
    },
    {
      "anonymous": false,
      "inputs": [
        {
          "indexed": false,
          "internalType": "string",
          "name": "contentHash",
          "type": "string"
        },
        {
          "indexed": false,
          "internalType": "string",
          "name": "previewHash",
          "type": "string"
        },
        {
          "indexed": true,
          "internalType": "uint256",
          "name": "postId",
          "type": "uint256"
        }
      ],
      "name": "PostUpdated",
      "type": "event"
    },
    {
      "anonymous": false,
      "inputs": [
        {
          "indexed": true,
          "internalType": "uint256",
          "name": "postId",
          "type": "uint256"
        },
        {
          "indexed": false,
          "internalType": "uint256",
          "name": "price",
          "type": "uint256"
        }
      ],
      "name": "PriceUpdated",
      "type": "event"
    },
    {
      "inputs": [
        {
          "internalType": "uint256",
          "name": "postId",
          "type": "uint256"
        },
        {
          "internalType": "address",
          "name": "addyThatWantsToSeeIt",
          "type": "address"
        }
      ],
      "name": "addressCanSeePost",
      "outputs": [
        {
          "internalType": "bool",
          "name": "",
          "type": "bool"
        }
      ],
      "stateMutability": "view",
      "type": "function"
    },
    {
      "inputs": [
        {
          "internalType": "string",
          "name": "contentHash",
          "type": "string"
        },
        {
          "internalType": "string",
          "name": "previewHash",
          "type": "string"
        },
        {
          "internalType": "uint256",
          "name": "price",
          "type": "uint256"
        }
      ],
      "name": "createPost",
      "outputs": [],
      "stateMutability": "nonpayable",
      "type": "function"
    },
    {
      "inputs": [
        {
          "internalType": "uint256",
          "name": "",
          "type": "uint256"
        },
        {
          "internalType": "address",
          "name": "",
          "type": "address"
        }
      ],
      "name": "ownedBy",
      "outputs": [
        {
          "internalType": "bool",
          "name": "",
          "type": "bool"
        }
      ],
      "stateMutability": "view",
      "type": "function"
    },
    {
      "inputs": [
        {
          "internalType": "uint256",
          "name": "",
          "type": "uint256"
        },
        {
          "internalType": "uint256",
          "name": "",
          "type": "uint256"
        }
      ],
      "name": "ownedByArray",
      "outputs": [
        {
          "internalType": "address",
          "name": "",
          "type": "address"
        }
      ],
      "stateMutability": "view",
      "type": "function"
    },
    {
      "inputs": [],
      "name": "owner",
      "outputs": [
        {
          "internalType": "address",
          "name": "",
          "type": "address"
        }
      ],
      "stateMutability": "view",
      "type": "function"
    },
    {
      "inputs": [
        {
          "internalType": "uint256",
          "name": "postId",
          "type": "uint256"
        }
      ],
      "name": "ownersOfPost",
      "outputs": [
        {
          "internalType": "address[]",
          "name": "",
          "type": "address[]"
        }
      ],
      "stateMutability": "view",
      "type": "function"
    },
    {
      "inputs": [
        {
          "internalType": "uint256",
          "name": "",
          "type": "uint256"
        }
      ],
      "name": "posts",
      "outputs": [
        {
          "internalType": "uint256",
          "name": "price",
          "type": "uint256"
        },
        {
          "internalType": "address",
          "name": "creator",
          "type": "address"
        },
        {
          "internalType": "string",
          "name": "contentHash",
          "type": "string"
        },
        {
          "internalType": "string",
          "name": "previewHash",
          "type": "string"
        },
        {
          "internalType": "bool",
          "name": "disabled",
          "type": "bool"
        }
      ],
      "stateMutability": "view",
      "type": "function"
    },
    {
      "inputs": [
        {
          "internalType": "address",
          "name": "addy",
          "type": "address"
        }
      ],
      "name": "postsByAddress",
      "outputs": [
        {
          "internalType": "uint256[]",
          "name": "",
          "type": "uint256[]"
        }
      ],
      "stateMutability": "view",
      "type": "function"
    },
    {
      "inputs": [
        {
          "internalType": "address",
          "name": "",
          "type": "address"
        },
        {
          "internalType": "uint256",
          "name": "",
          "type": "uint256"
        }
      ],
      "name": "postsCreatedArray",
      "outputs": [
        {
          "internalType": "uint256",
          "name": "",
          "type": "uint256"
        }
      ],
      "stateMutability": "view",
      "type": "function"
    },
    {
      "inputs": [
        {
          "internalType": "address",
          "name": "",
          "type": "address"
        },
        {
          "internalType": "uint256",
          "name": "",
          "type": "uint256"
        }
      ],
      "name": "postsOwned",
      "outputs": [
        {
          "internalType": "bool",
          "name": "",
          "type": "bool"
        }
      ],
      "stateMutability": "view",
      "type": "function"
    },
    {
      "inputs": [
        {
          "internalType": "address",
          "name": "addy",
          "type": "address"
        }
      ],
      "name": "postsOwnedByAddress",
      "outputs": [
        {
          "internalType": "uint256[]",
          "name": "",
          "type": "uint256[]"
        }
      ],
      "stateMutability": "view",
      "type": "function"
    },
    {
      "inputs": [
        {
          "internalType": "address",
          "name": "purchaser",
          "type": "address"
        },
        {
          "internalType": "uint256",
          "name": "postId",
          "type": "uint256"
        }
      ],
      "name": "purchasePost",
      "outputs": [],
      "stateMutability": "payable",
      "type": "function"
    },
    {
      "inputs": [],
      "name": "renounceOwnership",
      "outputs": [],
      "stateMutability": "nonpayable",
      "type": "function"
    },
    {
      "inputs": [
        {
          "internalType": "uint8",
          "name": "newFee",
          "type": "uint8"
        }
      ],
      "name": "setProtocolFee",
      "outputs": [],
      "stateMutability": "nonpayable",
      "type": "function"
    },
    {
      "inputs": [
        {
          "internalType": "address",
          "name": "newTreasury",
          "type": "address"
        }
      ],
      "name": "setTreasury",
      "outputs": [],
      "stateMutability": "nonpayable",
      "type": "function"
    },
    {
      "inputs": [
        {
          "internalType": "uint256",
          "name": "postId",
          "type": "uint256"
        },
        {
          "internalType": "bool",
          "name": "disabled",
          "type": "bool"
        }
      ],
      "name": "toggleNewPurchasesEnabled",
      "outputs": [],
      "stateMutability": "nonpayable",
      "type": "function"
    },
    {
      "inputs": [
        {
          "internalType": "address",
          "name": "newOwner",
          "type": "address"
        }
      ],
      "name": "transferOwnership",
      "outputs": [],
      "stateMutability": "nonpayable",
      "type": "function"
    },
    {
      "inputs": [
        {
          "internalType": "uint256",
          "name": "postId",
          "type": "uint256"
        },
        {
          "internalType": "uint256",
          "name": "price",
          "type": "uint256"
        }
      ],
      "name": "updatePrice",
      "outputs": [],
      "stateMutability": "nonpayable",
      "type": "function"
    }
  ],
  "bytecode": "0x608060405260006007556040516200200c3803806200200c83398181016040528101906200002e9190620001dd565b6200004e62000042620000a760201b60201c565b620000af60201b60201c565b6200005f81620000af60201b60201c565b80600860006101000a81548173ffffffffffffffffffffffffffffffffffffffff021916908373ffffffffffffffffffffffffffffffffffffffff160217905550506200020f565b600033905090565b60008060009054906101000a900473ffffffffffffffffffffffffffffffffffffffff169050816000806101000a81548173ffffffffffffffffffffffffffffffffffffffff021916908373ffffffffffffffffffffffffffffffffffffffff1602179055508173ffffffffffffffffffffffffffffffffffffffff168173ffffffffffffffffffffffffffffffffffffffff167f8be0079c531659141344cd1fd0a4f28419497f9722a3daafe3b4186f6b6457e060405160405180910390a35050565b600080fd5b600073ffffffffffffffffffffffffffffffffffffffff82169050919050565b6000620001a58262000178565b9050919050565b620001b78162000198565b8114620001c357600080fd5b50565b600081519050620001d781620001ac565b92915050565b600060208284031215620001f657620001f562000173565b5b60006200020684828501620001c6565b91505092915050565b611ded806200021f6000396000f3fe6080604052600436106100a75760003560e01c806376b18a651161006457806376b18a65146101e457806382367b2d1461020d5780638da5cb5b14610236578063b090b65f14610261578063f0f442601461027d578063f2fde38b146102a6576100a7565b80630b1e7f83146100ac57806336c1b904146100ed578063515338871461012a57806353f1b3ea14610167578063715018a6146101a4578063742d931a146101bb575b600080fd5b3480156100b857600080fd5b506100d360048036038101906100ce9190611391565b6102cf565b6040516100e49594939291906114c2565b60405180910390f35b3480156100f957600080fd5b50610114600480360381019061010f919061154f565b610442565b604051610121919061158f565b60405180910390f35b34801561013657600080fd5b50610151600480360381019061014c91906115aa565b610471565b60405161015e91906115ea565b60405180910390f35b34801561017357600080fd5b5061018e60048036038101906101899190611605565b6104bf565b60405161019b919061158f565b60405180910390f35b3480156101b057600080fd5b506101b96104ee565b005b3480156101c757600080fd5b506101e260048036038101906101dd91906116aa565b610576565b005b3480156101f057600080fd5b5061020b6004803603810190610206919061176b565b610775565b005b34801561021957600080fd5b50610234600480360381019061022f91906115aa565b61091b565b005b34801561024257600080fd5b5061024b610a16565b60405161025891906115ea565b60405180910390f35b61027b60048036038101906102769190611605565b610a3f565b005b34801561028957600080fd5b506102a4600480360381019061029f91906117ab565b611006565b005b3480156102b257600080fd5b506102cd60048036038101906102c891906117ab565b6110c6565b005b60046020528060005260406000206000915090508060000154908060010160009054906101000a900473ffffffffffffffffffffffffffffffffffffffff169080600201805461031e90611807565b80601f016020809104026020016040519081016040528092919081815260200182805461034a90611807565b80156103975780601f1061036c57610100808354040283529160200191610397565b820191906000526020600020905b81548152906001019060200180831161037a57829003601f168201915b5050505050908060030180546103ac90611807565b80601f01602080910402602001604051908101604052809291908181526020018280546103d890611807565b80156104255780601f106103fa57610100808354040283529160200191610425565b820191906000526020600020905b81548152906001019060200180831161040857829003601f168201915b5050505050908060040160009054906101000a900460ff16905085565b60036020528160005260406000206020528060005260406000206000915091509054906101000a900460ff1681565b6002602052816000526040600020818154811061048d57600080fd5b906000526020600020016000915091509054906101000a900473ffffffffffffffffffffffffffffffffffffffff1681565b60066020528160005260406000206020528060005260406000206000915091509054906101000a900460ff1681565b6104f66111be565b73ffffffffffffffffffffffffffffffffffffffff16610514610a16565b73ffffffffffffffffffffffffffffffffffffffff161461056a576040517f08c379a000000000000000000000000000000000000000000000000000000000815260040161056190611885565b60405180910390fd5b61057460006111c6565b565b610580600161128a565b600061058c60016112a0565b90506040518060a001604052808381526020013373ffffffffffffffffffffffffffffffffffffffff16815260200187878080601f016020809104026020016040519081016040528093929190818152602001838380828437600081840152601f19601f82011690508083019250505050505050815260200185858080601f016020809104026020016040519081016040528093929190818152602001838380828437600081840152601f19601f82011690508083019250505050505050815260200160001515815250600460008381526020019081526020016000206000820151816000015560208201518160010160006101000a81548173ffffffffffffffffffffffffffffffffffffffff021916908373ffffffffffffffffffffffffffffffffffffffff16021790555060408201518160020190805190602001906106d69291906112ae565b5060608201518160030190805190602001906106f39291906112ae565b5060808201518160040160006101000a81548160ff0219169083151502179055509050503373ffffffffffffffffffffffffffffffffffffffff167f67d7c5d5722b1111c2cfcbdd0a1bb0f68912cc9d69372906bd37128042cfb0ab87878787876040516107659594939291906118e1565b60405180910390a2505050505050565b6004600083815260200190815260200160002060010160009054906101000a900473ffffffffffffffffffffffffffffffffffffffff1673ffffffffffffffffffffffffffffffffffffffff163373ffffffffffffffffffffffffffffffffffffffff1614610819576040517f08c379a000000000000000000000000000000000000000000000000000000000815260040161081090611976565b60405180910390fd5b8015156004600084815260200190815260200160002060040160009054906101000a900460ff1615151415610883576040517f08c379a000000000000000000000000000000000000000000000000000000000815260040161087a906119e2565b60405180910390fd5b806004600084815260200190815260200160002060040160006101000a81548160ff02191690831515021790555080156108e957817f0c48d600979c2ea5df710357b6601b1c93f522872a42b779eeaff0dbe388adbb60405160405180910390a2610917565b817f9f5aa107147e8677760aa7868a3dbea6ad28dcc7f25cc65b61cdfa234e958a5c60405160405180910390a25b5050565b6004600083815260200190815260200160002060010160009054906101000a900473ffffffffffffffffffffffffffffffffffffffff1673ffffffffffffffffffffffffffffffffffffffff163373ffffffffffffffffffffffffffffffffffffffff16146109bf576040517f08c379a00000000000000000000000000000000000000000000000000000000081526004016109b690611a4e565b60405180910390fd5b806004600084815260200190815260200160002060000181905550807f945c1c4e99aa89f648fbfe3df471b916f719e16d960fcec0737d4d56bd69683883604051610a0a9190611a6e565b60405180910390a25050565b60008060009054906101000a900473ffffffffffffffffffffffffffffffffffffffff16905090565b6000600460008381526020019081526020016000206040518060a0016040529081600082015481526020016001820160009054906101000a900473ffffffffffffffffffffffffffffffffffffffff1673ffffffffffffffffffffffffffffffffffffffff1673ffffffffffffffffffffffffffffffffffffffff168152602001600282018054610acf90611807565b80601f0160208091040260200160405190810160405280929190818152602001828054610afb90611807565b8015610b485780601f10610b1d57610100808354040283529160200191610b48565b820191906000526020600020905b815481529060010190602001808311610b2b57829003601f168201915b50505050508152602001600382018054610b6190611807565b80601f0160208091040260200160405190810160405280929190818152602001828054610b8d90611807565b8015610bda5780601f10610baf57610100808354040283529160200191610bda565b820191906000526020600020905b815481529060010190602001808311610bbd57829003601f168201915b505050505081526020016004820160009054906101000a900460ff16151515158152505090508060000151341015610c47576040517f08c379a0000000000000000000000000000000000000000000000000000000008152600401610c3e90611ad5565b60405180910390fd5b6000816020015190506000600860009054906101000a900473ffffffffffffffffffffffffffffffffffffffff169050600060075434610c879190611b24565b905060008134610c979190611b7e565b905060008473ffffffffffffffffffffffffffffffffffffffff1682604051610cbf90611be3565b60006040518083038185875af1925050503d8060008114610cfc576040519150601f19603f3d011682016040523d82523d6000602084013e610d01565b606091505b5050905080610d45576040517f08c379a0000000000000000000000000000000000000000000000000000000008152600401610d3c90611c6a565b60405180910390fd5b6000831115610dfc5760008473ffffffffffffffffffffffffffffffffffffffff1683604051610d7490611be3565b60006040518083038185875af1925050503d8060008114610db1576040519150601f19603f3d011682016040523d82523d6000602084013e610db6565b606091505b5050905080610dfa576040517f08c379a0000000000000000000000000000000000000000000000000000000008152600401610df190611cd6565b60405180910390fd5b505b60016003600089815260200190815260200160002060008a73ffffffffffffffffffffffffffffffffffffffff1673ffffffffffffffffffffffffffffffffffffffff16815260200190815260200160002060006101000a81548160ff0219169083151502179055506001600660008a73ffffffffffffffffffffffffffffffffffffffff1673ffffffffffffffffffffffffffffffffffffffff168152602001908152602001600020600089815260200190815260200160002060006101000a81548160ff0219169083151502179055508760026000898152602001908152602001600020600260008a81526020019081526020016000208054905081548110610f0a57610f09611cf6565b5b9060005260206000200160006101000a81548173ffffffffffffffffffffffffffffffffffffffff021916908373ffffffffffffffffffffffffffffffffffffffff160217905550600560008973ffffffffffffffffffffffffffffffffffffffff1673ffffffffffffffffffffffffffffffffffffffff168152602001908152602001600020879080600181540180825580915050600190039060005260206000200160009091909190915055868873ffffffffffffffffffffffffffffffffffffffff167ffd656fb685c341681b462ffa5be492574215a3624ad9d12486dc6b090ba304fe60405160405180910390a35050505050505050565b61100e6111be565b73ffffffffffffffffffffffffffffffffffffffff1661102c610a16565b73ffffffffffffffffffffffffffffffffffffffff1614611082576040517f08c379a000000000000000000000000000000000000000000000000000000000815260040161107990611885565b60405180910390fd5b80600860006101000a81548173ffffffffffffffffffffffffffffffffffffffff021916908373ffffffffffffffffffffffffffffffffffffffff16021790555050565b6110ce6111be565b73ffffffffffffffffffffffffffffffffffffffff166110ec610a16565b73ffffffffffffffffffffffffffffffffffffffff1614611142576040517f08c379a000000000000000000000000000000000000000000000000000000000815260040161113990611885565b60405180910390fd5b600073ffffffffffffffffffffffffffffffffffffffff168173ffffffffffffffffffffffffffffffffffffffff1614156111b2576040517f08c379a00000000000000000000000000000000000000000000000000000000081526004016111a990611d97565b60405180910390fd5b6111bb816111c6565b50565b600033905090565b60008060009054906101000a900473ffffffffffffffffffffffffffffffffffffffff169050816000806101000a81548173ffffffffffffffffffffffffffffffffffffffff021916908373ffffffffffffffffffffffffffffffffffffffff1602179055508173ffffffffffffffffffffffffffffffffffffffff168173ffffffffffffffffffffffffffffffffffffffff167f8be0079c531659141344cd1fd0a4f28419497f9722a3daafe3b4186f6b6457e060405160405180910390a35050565b6001816000016000828254019250508190555050565b600081600001549050919050565b8280546112ba90611807565b90600052602060002090601f0160209004810192826112dc5760008555611323565b82601f106112f557805160ff1916838001178555611323565b82800160010185558215611323579182015b82811115611322578251825591602001919060010190611307565b5b5090506113309190611334565b5090565b5b8082111561134d576000816000905550600101611335565b5090565b600080fd5b600080fd5b6000819050919050565b61136e8161135b565b811461137957600080fd5b50565b60008135905061138b81611365565b92915050565b6000602082840312156113a7576113a6611351565b5b60006113b58482850161137c565b91505092915050565b6113c78161135b565b82525050565b600073ffffffffffffffffffffffffffffffffffffffff82169050919050565b60006113f8826113cd565b9050919050565b611408816113ed565b82525050565b600081519050919050565b600082825260208201905092915050565b60005b8381101561144857808201518184015260208101905061142d565b83811115611457576000848401525b50505050565b6000601f19601f8301169050919050565b60006114798261140e565b6114838185611419565b935061149381856020860161142a565b61149c8161145d565b840191505092915050565b60008115159050919050565b6114bc816114a7565b82525050565b600060a0820190506114d760008301886113be565b6114e460208301876113ff565b81810360408301526114f6818661146e565b9050818103606083015261150a818561146e565b905061151960808301846114b3565b9695505050505050565b61152c816113ed565b811461153757600080fd5b50565b60008135905061154981611523565b92915050565b6000806040838503121561156657611565611351565b5b60006115748582860161137c565b92505060206115858582860161153a565b9150509250929050565b60006020820190506115a460008301846114b3565b92915050565b600080604083850312156115c1576115c0611351565b5b60006115cf8582860161137c565b92505060206115e08582860161137c565b9150509250929050565b60006020820190506115ff60008301846113ff565b92915050565b6000806040838503121561161c5761161b611351565b5b600061162a8582860161153a565b925050602061163b8582860161137c565b9150509250929050565b600080fd5b600080fd5b600080fd5b60008083601f84011261166a57611669611645565b5b8235905067ffffffffffffffff8111156116875761168661164a565b5b6020830191508360018202830111156116a3576116a261164f565b5b9250929050565b6000806000806000606086880312156116c6576116c5611351565b5b600086013567ffffffffffffffff8111156116e4576116e3611356565b5b6116f088828901611654565b9550955050602086013567ffffffffffffffff81111561171357611712611356565b5b61171f88828901611654565b935093505060406117328882890161137c565b9150509295509295909350565b611748816114a7565b811461175357600080fd5b50565b6000813590506117658161173f565b92915050565b6000806040838503121561178257611781611351565b5b60006117908582860161137c565b92505060206117a185828601611756565b9150509250929050565b6000602082840312156117c1576117c0611351565b5b60006117cf8482850161153a565b91505092915050565b7f4e487b7100000000000000000000000000000000000000000000000000000000600052602260045260246000fd5b6000600282049050600182168061181f57607f821691505b60208210811415611833576118326117d8565b5b50919050565b7f4f776e61626c653a2063616c6c6572206973206e6f7420746865206f776e6572600082015250565b600061186f602083611419565b915061187a82611839565b602082019050919050565b6000602082019050818103600083015261189e81611862565b9050919050565b82818337600083830152505050565b60006118c08385611419565b93506118cd8385846118a5565b6118d68361145d565b840190509392505050565b600060608201905081810360008301526118fc8187896118b4565b905081810360208301526119118185876118b4565b905061192060408301846113be565b9695505050505050565b7f6e6f7420757220706f73742063616e742064697361626c650000000000000000600082015250565b6000611960601883611419565b915061196b8261192a565b602082019050919050565b6000602082019050818103600083015261198f81611953565b9050919050565b7f616c726561647920736574206c696b6520746861740000000000000000000000600082015250565b60006119cc601583611419565b91506119d782611996565b602082019050919050565b600060208201905081810360008301526119fb816119bf565b9050919050565b7f6e6f7420757220706f73742063616e74206368616e6765207072696365000000600082015250565b6000611a38601d83611419565b9150611a4382611a02565b602082019050919050565b60006020820190508181036000830152611a6781611a2b565b9050919050565b6000602082019050611a8360008301846113be565b92915050565b7f706179206d6f7265000000000000000000000000000000000000000000000000600082015250565b6000611abf600883611419565b9150611aca82611a89565b602082019050919050565b60006020820190508181036000830152611aee81611ab2565b9050919050565b7f4e487b7100000000000000000000000000000000000000000000000000000000600052601160045260246000fd5b6000611b2f8261135b565b9150611b3a8361135b565b9250817fffffffffffffffffffffffffffffffffffffffffffffffffffffffffffffffff0483118215151615611b7357611b72611af5565b5b828202905092915050565b6000611b898261135b565b9150611b948361135b565b925082821015611ba757611ba6611af5565b5b828203905092915050565b600081905092915050565b50565b6000611bcd600083611bb2565b9150611bd882611bbd565b600082019050919050565b6000611bee82611bc0565b9150819050919050565b7f4661696c656420746f2073656e64207061796d656e7420746f2063726561746f60008201527f7200000000000000000000000000000000000000000000000000000000000000602082015250565b6000611c54602183611419565b9150611c5f82611bf8565b604082019050919050565b60006020820190508181036000830152611c8381611c47565b9050919050565b7f4661696c656420746f2073656e642066656520746f2075730000000000000000600082015250565b6000611cc0601883611419565b9150611ccb82611c8a565b602082019050919050565b60006020820190508181036000830152611cef81611cb3565b9050919050565b7f4e487b7100000000000000000000000000000000000000000000000000000000600052603260045260246000fd5b7f4f776e61626c653a206e6577206f776e657220697320746865207a65726f206160008201527f6464726573730000000000000000000000000000000000000000000000000000602082015250565b6000611d81602683611419565b9150611d8c82611d25565b604082019050919050565b60006020820190508181036000830152611db081611d74565b905091905056fea26469706673582212204299e6323c75ca24d87a36118367292ef1bc784ad888a607acd3f97514c739fd64736f6c63430008090033",
  "linkReferences": {},
  "deployedLinkReferences": {}
}