{
  "contractName": "Simple",
  "abi": [
    {
      "inputs": [
        {
          "internalType": "address",
          "name": "newOwner",
          "type": "address"
        }
      ],
      "stateMutability": "payable",
      "type": "constructor"
    },
    {
      "anonymous": false,
      "inputs": [
        {
          "indexed": true,
          "internalType": "address",
          "name": "previousOwner",
          "type": "address"
        },
        {
          "indexed": true,
          "internalType": "address",
          "name": "newOwner",
          "type": "address"
        }
      ],
      "name": "OwnershipTransferred",
      "type": "event"
    },
    {
      "anonymous": false,
      "inputs": [
        {
          "indexed": false,
          "internalType": "string",
          "name": "contentHash",
          "type": "string"
        },
        {
          "indexed": false,
          "internalType": "string",
          "name": "previewHash",
          "type": "string"
        },
        {
          "indexed": false,
          "internalType": "uint256",
          "name": "price",
          "type": "uint256"
        },
        {
          "indexed": true,
          "internalType": "address",
          "name": "creator",
          "type": "address"
        }
      ],
      "name": "PostCreated",
      "type": "event"
    },
    {
      "anonymous": false,
      "inputs": [
        {
          "indexed": true,
          "internalType": "uint256",
          "name": "postId",
          "type": "uint256"
        }
      ],
      "name": "PostDisabled",
      "type": "event"
    },
    {
      "anonymous": false,
      "inputs": [
        {
          "indexed": true,
          "internalType": "uint256",
          "name": "postId",
          "type": "uint256"
        }
      ],
      "name": "PostEnabled",
      "type": "event"
    },
    {
      "anonymous": false,
      "inputs": [
        {
          "indexed": true,
          "internalType": "address",
          "name": "purchaser",
          "type": "address"
        },
        {
          "indexed": true,
          "internalType": "uint256",
          "name": "postId",
          "type": "uint256"
        }
      ],
      "name": "PostPurchased",
      "type": "event"
    },
    {
      "anonymous": false,
      "inputs": [
        {
          "indexed": false,
          "internalType": "string",
          "name": "contentHash",
          "type": "string"
        },
        {
          "indexed": false,
          "internalType": "string",
          "name": "previewHash",
          "type": "string"
        },
        {
          "indexed": true,
          "internalType": "uint256",
          "name": "postId",
          "type": "uint256"
        }
      ],
      "name": "PostUpdated",
      "type": "event"
    },
    {
      "anonymous": false,
      "inputs": [
        {
          "indexed": true,
          "internalType": "uint256",
          "name": "postId",
          "type": "uint256"
        },
        {
          "indexed": false,
          "internalType": "uint256",
          "name": "price",
          "type": "uint256"
        }
      ],
      "name": "PriceUpdated",
      "type": "event"
    },
    {
      "inputs": [
        {
          "internalType": "uint256",
          "name": "",
          "type": "uint256"
        },
        {
          "internalType": "address",
          "name": "",
          "type": "address"
        }
      ],
      "name": "ownedBy",
      "outputs": [
        {
          "internalType": "bool",
          "name": "",
          "type": "bool"
        }
      ],
      "stateMutability": "view",
      "type": "function"
    },
    {
      "inputs": [
        {
          "internalType": "uint256",
          "name": "",
          "type": "uint256"
        },
        {
          "internalType": "uint256",
          "name": "",
          "type": "uint256"
        }
      ],
      "name": "ownedByArray",
      "outputs": [
        {
          "internalType": "address",
          "name": "",
          "type": "address"
        }
      ],
      "stateMutability": "view",
      "type": "function"
    },
    {
      "inputs": [],
      "name": "owner",
      "outputs": [
        {
          "internalType": "address",
          "name": "",
          "type": "address"
        }
      ],
      "stateMutability": "view",
      "type": "function"
    },
    {
      "inputs": [
        {
          "internalType": "uint256",
          "name": "",
          "type": "uint256"
        }
      ],
      "name": "posts",
      "outputs": [
        {
          "internalType": "uint256",
          "name": "price",
          "type": "uint256"
        },
        {
          "internalType": "address",
          "name": "creator",
          "type": "address"
        },
        {
          "internalType": "string",
          "name": "contentHash",
          "type": "string"
        },
        {
          "internalType": "string",
          "name": "previewHash",
          "type": "string"
        },
        {
          "internalType": "bool",
          "name": "disabled",
          "type": "bool"
        }
      ],
      "stateMutability": "view",
      "type": "function"
    },
    {
      "inputs": [
        {
          "internalType": "address",
          "name": "",
          "type": "address"
        },
        {
          "internalType": "uint256",
          "name": "",
          "type": "uint256"
        }
      ],
      "name": "postsOwned",
      "outputs": [
        {
          "internalType": "bool",
          "name": "",
          "type": "bool"
        }
      ],
      "stateMutability": "view",
      "type": "function"
    },
    {
      "inputs": [],
      "name": "renounceOwnership",
      "outputs": [],
      "stateMutability": "nonpayable",
      "type": "function"
    },
    {
      "inputs": [
        {
          "internalType": "address",
          "name": "newOwner",
          "type": "address"
        }
      ],
      "name": "transferOwnership",
      "outputs": [],
      "stateMutability": "nonpayable",
      "type": "function"
    },
    {
      "inputs": [
        {
          "internalType": "string",
          "name": "contentHash",
          "type": "string"
        },
        {
          "internalType": "string",
          "name": "previewHash",
          "type": "string"
        },
        {
          "internalType": "uint256",
          "name": "price",
          "type": "uint256"
        }
      ],
      "name": "createPost",
      "outputs": [],
      "stateMutability": "nonpayable",
      "type": "function"
    },
    {
      "inputs": [
        {
          "internalType": "uint256",
          "name": "postId",
          "type": "uint256"
        },
        {
          "internalType": "uint256",
          "name": "price",
          "type": "uint256"
        }
      ],
      "name": "updatePrice",
      "outputs": [],
      "stateMutability": "nonpayable",
      "type": "function"
    },
    {
      "inputs": [
        {
          "internalType": "uint256",
          "name": "postId",
          "type": "uint256"
        },
        {
          "internalType": "bool",
          "name": "disabled",
          "type": "bool"
        }
      ],
      "name": "toggleNewPurchasesEnabled",
      "outputs": [],
      "stateMutability": "nonpayable",
      "type": "function"
    },
    {
      "inputs": [
        {
          "internalType": "uint256",
          "name": "postId",
          "type": "uint256"
        },
        {
          "internalType": "address",
          "name": "addyThatWantsToSeeIt",
          "type": "address"
        }
      ],
      "name": "addressCanSeePost",
      "outputs": [
        {
          "internalType": "bool",
          "name": "",
          "type": "bool"
        }
      ],
      "stateMutability": "view",
      "type": "function"
    },
    {
      "inputs": [
        {
          "internalType": "address",
          "name": "purchaser",
          "type": "address"
        },
        {
          "internalType": "uint256",
          "name": "postId",
          "type": "uint256"
        }
      ],
      "name": "purchasePost",
      "outputs": [],
      "stateMutability": "payable",
      "type": "function"
    },
    {
      "inputs": [
        {
          "internalType": "address",
          "name": "newTreasury",
          "type": "address"
        }
      ],
      "name": "setTreasury",
      "outputs": [],
      "stateMutability": "nonpayable",
      "type": "function"
    },
    {
      "inputs": [
        {
          "internalType": "uint8",
          "name": "newFee",
          "type": "uint8"
        }
      ],
      "name": "setProtocolFee",
      "outputs": [],
      "stateMutability": "nonpayable",
      "type": "function"
    }
  ],
  "bytecode": "0x608060408190526008805460ff191690556114d03881900390819083398101604081905261002c916100b9565b61003533610069565b61003e81610069565b600880546001600160a01b0390921661010002610100600160a81b03199092169190911790556100e9565b600080546001600160a01b038381166001600160a01b0319831681178455604051919092169283917f8be0079c531659141344cd1fd0a4f28419497f9722a3daafe3b4186f6b6457e09190a35050565b6000602082840312156100cb57600080fd5b81516001600160a01b03811681146100e257600080fd5b9392505050565b6113d8806100f86000396000f3fe6080604052600436106100dd5760003560e01c806376b18a651161007f578063b090b65f11610059578063b090b65f1461028f578063d369f73b146102a2578063f0f44260146102c2578063f2fde38b146102e257600080fd5b806376b18a651461023157806382367b2d146102515780638da5cb5b1461027157600080fd5b806351533887116100bb578063515338871461018957806353f1b3ea146101c1578063715018a6146101fc578063742d931a1461021157600080fd5b80630b1e7f83146100e257806336c1b9041461011c5780634e91f81114610167575b600080fd5b3480156100ee57600080fd5b506101026100fd366004610eef565b610302565b604051610113959493929190610f4e565b60405180910390f35b34801561012857600080fd5b50610157610137366004610fb9565b600360209081526000928352604080842090915290825290205460ff1681565b6040519015158152602001610113565b34801561017357600080fd5b50610187610182366004610fe5565b61044e565b005b34801561019557600080fd5b506101a96101a436600461100f565b6104ce565b6040516001600160a01b039091168152602001610113565b3480156101cd57600080fd5b506101576101dc366004611031565b600660209081526000928352604080842090915290825290205460ff1681565b34801561020857600080fd5b50610187610506565b34801561021d57600080fd5b5061018761022c3660046110a4565b61051a565b34801561023d57600080fd5b5061018761024c366004611118565b6106c1565b34801561025d57600080fd5b5061018761026c36600461100f565b610819565b34801561027d57600080fd5b506000546001600160a01b03166101a9565b61018761029d366004611031565b6108d3565b3480156102ae57600080fd5b506101576102bd366004610fb9565b610d16565b3480156102ce57600080fd5b506101876102dd36600461114d565b610d61565b3480156102ee57600080fd5b506101876102fd36600461114d565b610da8565b60046020526000908152604090208054600182015460028301805492936001600160a01b039092169261033490611168565b80601f016020809104026020016040519081016040528092919081815260200182805461036090611168565b80156103ad5780601f10610382576101008083540402835291602001916103ad565b820191906000526020600020905b81548152906001019060200180831161039057829003601f168201915b5050505050908060030180546103c290611168565b80601f01602080910402602001604051908101604052809291908181526020018280546103ee90611168565b801561043b5780601f106104105761010080835404028352916020019161043b565b820191906000526020600020905b81548152906001019060200180831161041e57829003601f168201915b5050506004909301549192505060ff1685565b610456610e38565b610464565b60405180910390fd5b60128160ff1611156104b85760405162461bcd60e51b815260206004820152601560248201527f6c657473206e6f20676574206372617a79206e6f770000000000000000000000604482015260640161045b565b6008805460ff191660ff92909216919091179055565b600260205281600052604060002081815481106104ea57600080fd5b6000918252602090912001546001600160a01b03169150829050565b61050e610e38565b6105186000610e92565b565b610528600180546001019055565b600061053360015490565b90506040518060a00160405280838152602001336001600160a01b0316815260200187878080601f016020809104026020016040519081016040528093929190818152602001838380828437600092019190915250505090825250604080516020601f8801819004810282018101909252868152918101919087908790819084018382808284376000920182905250938552505050602091820181905283815260048252604090819020835181559183015160018301805473ffffffffffffffffffffffffffffffffffffffff19166001600160a01b0390921691909117905582015160028201906106259082611207565b506060820151600382019061063a9082611207565b50608091909101516004909101805460ff191691151591909117905533600081815260076020908152604080832080546001810182559084529190922001839055517f67d7c5d5722b1111c2cfcbdd0a1bb0f68912cc9d69372906bd37128042cfb0ab906106b190899089908990899089906112f0565b60405180910390a2505050505050565b6000828152600460205260409020600101546001600160a01b0316331461072a5760405162461bcd60e51b815260206004820152601860248201527f6e6f7420757220706f73742063616e742064697361626c650000000000000000604482015260640161045b565b6000828152600460208190526040909120015481151560ff9091161515036107945760405162461bcd60e51b815260206004820152601560248201527f616c726561647920736574206c696b6520746861740000000000000000000000604482015260640161045b565b600082815260046020819052604090912001805460ff191682158015919091179091556107ea5760405182907f0c48d600979c2ea5df710357b6601b1c93f522872a42b779eeaff0dbe388adbb90600090a25050565b60405182907f9f5aa107147e8677760aa7868a3dbea6ad28dcc7f25cc65b61cdfa234e958a5c90600090a25050565b6000828152600460205260409020600101546001600160a01b031633146108825760405162461bcd60e51b815260206004820152601d60248201527f6e6f7420757220706f73742063616e74206368616e6765207072696365000000604482015260640161045b565b600082815260046020526040908190208290555181907f945c1c4e99aa89f648fbfe3df471b916f719e16d960fcec0737d4d56bd696838906108c79085815260200190565b60405180910390a25050565b6000818152600460209081526040808320815160a0810183528154815260018201546001600160a01b031693810193909352600281018054919284019161091990611168565b80601f016020809104026020016040519081016040528092919081815260200182805461094590611168565b80156109925780601f1061096757610100808354040283529160200191610992565b820191906000526020600020905b81548152906001019060200180831161097557829003601f168201915b505050505081526020016003820180546109ab90611168565b80601f01602080910402602001604051908101604052809291908181526020018280546109d790611168565b8015610a245780601f106109f957610100808354040283529160200191610a24565b820191906000526020600020905b815481529060010190602001808311610a0757829003601f168201915b50505091835250506004919091015460ff1615156020909101528051909150341015610a925760405162461bcd60e51b815260206004820152600860248201527f706179206d6f7265000000000000000000000000000000000000000000000000604482015260640161045b565b60208101516008546001600160a01b0361010082041690600090606490610abc9060ff1634611340565b610ac69190611357565b90506000610ad48234611379565b90506000846001600160a01b03168260405160006040518083038185875af1925050503d8060008114610b23576040519150601f19603f3d011682016040523d82523d6000602084013e610b28565b606091505b5050905080610b835760405162461bcd60e51b815260206004820152602160248201527f4661696c656420746f2073656e64207061796d656e7420746f2063726561746f6044820152603960f91b606482015260840161045b565b8215610c2e576000846001600160a01b03168460405160006040518083038185875af1925050503d8060008114610bd6576040519150601f19603f3d011682016040523d82523d6000602084013e610bdb565b606091505b5050905080610c2c5760405162461bcd60e51b815260206004820152601860248201527f4661696c656420746f2073656e642066656520746f2075730000000000000000604482015260640161045b565b505b60008781526003602090815260408083206001600160a01b038c16845282528083208054600160ff199182168117909255600684528285208c8652845282852080549091169091179055600290915290208054899190610c8c61138c565b6000918252602080832091909101805473ffffffffffffffffffffffffffffffffffffffff19166001600160a01b03948516179055918a1680825260058352604080832080546001810182559084529383209093018a905591518992917ffd656fb685c341681b462ffa5be492574215a3624ad9d12486dc6b090ba304fe91a35050505050505050565b6000828152600460205260408120548103610d3357506001610d5b565b5060008281526003602090815260408083206001600160a01b038516845290915290205460ff165b92915050565b610d69610e38565b600880546001600160a01b03909216610100027fffffffffffffffffffffff0000000000000000000000000000000000000000ff909216919091179055565b610db0610e38565b6001600160a01b038116610e2c5760405162461bcd60e51b815260206004820152602660248201527f4f776e61626c653a206e6577206f776e657220697320746865207a65726f206160448201527f6464726573730000000000000000000000000000000000000000000000000000606482015260840161045b565b610e3581610e92565b50565b6000546001600160a01b031633146105185760405162461bcd60e51b815260206004820181905260248201527f4f776e61626c653a2063616c6c6572206973206e6f7420746865206f776e6572604482015260640161045b565b600080546001600160a01b0383811673ffffffffffffffffffffffffffffffffffffffff19831681178455604051919092169283917f8be0079c531659141344cd1fd0a4f28419497f9722a3daafe3b4186f6b6457e09190a35050565b600060208284031215610f0157600080fd5b5035919050565b6000815180845260005b81811015610f2e57602081850181015186830182015201610f12565b506000602082860101526020601f19601f83011685010191505092915050565b8581526001600160a01b038516602082015260a060408201526000610f7660a0830186610f08565b8281036060840152610f888186610f08565b91505082151560808301529695505050505050565b80356001600160a01b0381168114610fb457600080fd5b919050565b60008060408385031215610fcc57600080fd5b82359150610fdc60208401610f9d565b90509250929050565b600060208284031215610ff757600080fd5b813560ff8116811461100857600080fd5b9392505050565b6000806040838503121561102257600080fd5b50508035926020909101359150565b6000806040838503121561104457600080fd5b61104d83610f9d565b946020939093013593505050565b60008083601f84011261106d57600080fd5b50813567ffffffffffffffff81111561108557600080fd5b60208301915083602082850101111561109d57600080fd5b9250929050565b6000806000806000606086880312156110bc57600080fd5b853567ffffffffffffffff808211156110d457600080fd5b6110e089838a0161105b565b909750955060208801359150808211156110f957600080fd5b506111068882890161105b565b96999598509660400135949350505050565b6000806040838503121561112b57600080fd5b823591506020830135801515811461114257600080fd5b809150509250929050565b60006020828403121561115f57600080fd5b61100882610f9d565b600181811c9082168061117c57607f821691505b60208210810361119c57634e487b7160e01b600052602260045260246000fd5b50919050565b634e487b7160e01b600052604160045260246000fd5b601f82111561120257600081815260208120601f850160051c810160208610156111df5750805b601f850160051c820191505b818110156111fe578281556001016111eb565b5050505b505050565b815167ffffffffffffffff811115611221576112216111a2565b6112358161122f8454611168565b846111b8565b602080601f83116001811461126a57600084156112525750858301515b600019600386901b1c1916600185901b1785556111fe565b600085815260208120601f198616915b828110156112995788860151825594840194600190910190840161127a565b50858210156112b75787850151600019600388901b60f8161c191681555b5050505050600190811b01905550565b81835281816020850137506000828201602090810191909152601f909101601f19169091010190565b6060815260006113046060830187896112c7565b82810360208401526113178186886112c7565b9150508260408301529695505050505050565b634e487b7160e01b600052601160045260246000fd5b8082028115828204841417610d5b57610d5b61132a565b60008261137457634e487b7160e01b600052601260045260246000fd5b500490565b81810381811115610d5b57610d5b61132a565b634e487b7160e01b600052603260045260246000fdfea26469706673582212204b8c64ba136ce42fdf299838015b613d68790b6b39ca603a4f2dc9be2838cf7964736f6c63430008130033",
  "immutableReferences": {},
  "source": "// SPDX-License-Identifier: MIT\n\npragma solidity ^0.8.19;\n\nimport \"../../node_modules/@openzeppelin/contracts/utils/Counters.sol\";\nimport \"../../node_modules/@openzeppelin/contracts/access/Ownable.sol\";\n\ncontract Simple is Ownable {\n    using Counters for Counters.Counter;\n    Counters.Counter private _postIds;\n\n    event PostCreated(\n        string contentHash,\n        string previewHash,\n        uint256 price,\n        address indexed creator\n    );\n\n    event PostUpdated(\n        string contentHash,\n        string previewHash,\n        uint256 indexed postId\n    );\n\n    event PriceUpdated(\n        uint256 indexed postId,\n        uint256 price\n    );\n\n    event PostEnabled(\n        uint256 indexed postId\n    );\n\n    event PostDisabled(\n        uint256 indexed postId\n    );\n\n    event PostPurchased(address indexed purchaser, uint256 indexed postId);\n\n    struct post {\n        uint256 price;\n        address creator;\n        string contentHash;\n        string previewHash;\n        bool disabled;\n    }\n\n    // shouldnt need to store owned arrays once we have indexing setup?\n    mapping(uint256 => address[]) public ownedByArray;\n    mapping(uint256 => mapping(address => bool)) public ownedBy;\n    mapping(uint256 => post) public posts;\n    mapping(address => uint256[]) postsOwnedArray;\n    mapping(address => mapping(uint256 => bool)) public postsOwned;\n    mapping(address => uint256[]) postsCreatedArray;\n    uint8 protocolFee = 0;\n    address protocolTreasury;\n\n    constructor(address newOwner) payable {\n        _transferOwnership(newOwner);\n        protocolTreasury = newOwner;\n    }\n\n    function createPost(\n        string calldata contentHash,\n        string calldata previewHash,\n        uint256 price\n    ) public {\n      require(price >= 0, \"we no pay you\");\n\n        _postIds.increment();\n        uint256 postId = _postIds.current();\n        posts[postId] = post({\n            contentHash: contentHash,\n            previewHash: previewHash,\n            price: price,\n            creator: msg.sender,\n            disabled: false\n        });\n        postsCreatedArray[msg.sender].push(postId);\n\n        emit PostCreated(contentHash, previewHash, price, msg.sender);\n    }\n\n    function updatePrice(\n        uint256 postId,\n        uint256 price\n    ) public {\n        require(msg.sender == posts[postId].creator, \"not ur post cant change price\");\n        posts[postId].price = price;\n        emit PriceUpdated(price, postId);\n    }\n\n    function toggleNewPurchasesEnabled(\n        uint256 postId,\n        bool disabled\n    ) public {\n        require(msg.sender == posts[postId].creator, \"not ur post cant disable\");\n        require(posts[postId].disabled != disabled, \"already set like that\");\n        posts[postId].disabled = disabled;\n        if (disabled) { emit PostDisabled(postId); }\n        else { emit PostEnabled(postId); }\n    }\n\n    function addressCanSeePost(\n        uint256 postId,\n        address addyThatWantsToSeeIt\n    ) public view returns (bool) {\n        if (posts[postId].price == 0) return true;\n        return ownedBy[postId][addyThatWantsToSeeIt];\n    }\n\n    function purchasePost(address purchaser, uint256 postId) public payable {\n        post memory p = posts[postId];\n        require(msg.value >= p.price, \"pay more\");\n        address payable addy = payable(p.creator);\n        address payable protoAddy = payable(protocolTreasury);\n        uint256 fee = msg.value * protocolFee / 100;\n        uint256 royalties = msg.value - fee;\n\n        (bool success, ) = addy.call{value: royalties}(\"\");\n        require(success, \"Failed to send payment to creator\");\n\n        if (fee > 0) {\n            (bool successProto, ) = protoAddy.call{value: fee}(\"\");\n            require(successProto, \"Failed to send fee to us\");\n        }\n\n        ownedBy[postId][purchaser] = true;\n        postsOwned[purchaser][postId] = true;\n\n        ownedByArray[postId][ownedByArray[postId].length] = purchaser;\n        postsOwnedArray[purchaser].push(postId);\n\n        emit PostPurchased(purchaser, postId);\n    }\n\n    function setTreasury(address newTreasury) external onlyOwner {\n        protocolTreasury = newTreasury;\n    }\n\n    function setProtocolFee(uint8 newFee) external onlyOwner {\n      require(newFee >= 0, \"we no pay fee\");\n      require(newFee <= 18, \"lets no get crazy now\");\n      protocolFee = newFee;\n    }\n}",
  "sourcePath": "/Users/KaplanN/repos/BuidlProject/truffle/contracts/arbitrum/Simple.sol",
  "compiler": {
    "name": "solc",
    "version": "0.8.19+commit.7dd6d404.Emscripten.clang"
  },
  "schemaVersion": "3.4.12",
  "updatedAt": "2023-03-03T07:08:36.291Z",
  "devdoc": {
    "kind": "dev",
    "methods": {
      "owner()": {
        "details": "Returns the address of the current owner."
      },
      "renounceOwnership()": {
        "details": "Leaves the contract without owner. It will not be possible to call `onlyOwner` functions anymore. Can only be called by the current owner. NOTE: Renouncing ownership will leave the contract without an owner, thereby removing any functionality that is only available to the owner."
      },
      "transferOwnership(address)": {
        "details": "Transfers ownership of the contract to a new account (`newOwner`). Can only be called by the current owner."
      }
    },
    "version": 1
  },
  "userdoc": {
    "kind": "user",
    "methods": {},
    "version": 1
  }
}