{
  "contractName": "Simple",
  "abi": [
    {
      "inputs": [
        {
          "internalType": "address",
          "name": "newOwner",
          "type": "address"
        }
      ],
      "stateMutability": "payable",
      "type": "constructor"
    },
    {
      "anonymous": false,
      "inputs": [
        {
          "indexed": true,
          "internalType": "address",
          "name": "previousOwner",
          "type": "address"
        },
        {
          "indexed": true,
          "internalType": "address",
          "name": "newOwner",
          "type": "address"
        }
      ],
      "name": "OwnershipTransferred",
      "type": "event"
    },
    {
      "anonymous": false,
      "inputs": [
        {
          "indexed": false,
          "internalType": "string",
          "name": "contentHash",
          "type": "string"
        },
        {
          "indexed": false,
          "internalType": "string",
          "name": "previewHash",
          "type": "string"
        },
        {
          "indexed": false,
          "internalType": "uint256",
          "name": "price",
          "type": "uint256"
        },
        {
          "indexed": true,
          "internalType": "address",
          "name": "creator",
          "type": "address"
        }
      ],
      "name": "PostCreated",
      "type": "event"
    },
    {
      "anonymous": false,
      "inputs": [
        {
          "indexed": true,
          "internalType": "address",
          "name": "purchaser",
          "type": "address"
        },
        {
          "indexed": true,
          "internalType": "uint256",
          "name": "postId",
          "type": "uint256"
        }
      ],
      "name": "PostPurchased",
      "type": "event"
    },
    {
      "anonymous": false,
      "inputs": [
        {
          "indexed": false,
          "internalType": "string",
          "name": "contentHash",
          "type": "string"
        },
        {
          "indexed": false,
          "internalType": "string",
          "name": "previewHash",
          "type": "string"
        },
        {
          "indexed": false,
          "internalType": "uint256",
          "name": "price",
          "type": "uint256"
        },
        {
          "indexed": true,
          "internalType": "address",
          "name": "creator",
          "type": "address"
        }
      ],
      "name": "PostUpdated",
      "type": "event"
    },
    {
      "inputs": [
        {
          "internalType": "uint256",
          "name": "",
          "type": "uint256"
        },
        {
          "internalType": "address",
          "name": "",
          "type": "address"
        }
      ],
      "name": "ownedBy",
      "outputs": [
        {
          "internalType": "bool",
          "name": "",
          "type": "bool"
        }
      ],
      "stateMutability": "view",
      "type": "function"
    },
    {
      "inputs": [
        {
          "internalType": "uint256",
          "name": "",
          "type": "uint256"
        },
        {
          "internalType": "uint256",
          "name": "",
          "type": "uint256"
        }
      ],
      "name": "ownedByArray",
      "outputs": [
        {
          "internalType": "address",
          "name": "",
          "type": "address"
        }
      ],
      "stateMutability": "view",
      "type": "function"
    },
    {
      "inputs": [],
      "name": "owner",
      "outputs": [
        {
          "internalType": "address",
          "name": "",
          "type": "address"
        }
      ],
      "stateMutability": "view",
      "type": "function"
    },
    {
      "inputs": [
        {
          "internalType": "uint256",
          "name": "",
          "type": "uint256"
        }
      ],
      "name": "posts",
      "outputs": [
        {
          "internalType": "uint256",
          "name": "price",
          "type": "uint256"
        },
        {
          "internalType": "address",
          "name": "creator",
          "type": "address"
        },
        {
          "internalType": "string",
          "name": "contentHash",
          "type": "string"
        },
        {
          "internalType": "string",
          "name": "previewHash",
          "type": "string"
        },
        {
          "internalType": "bool",
          "name": "privatelyHosted",
          "type": "bool"
        }
      ],
      "stateMutability": "view",
      "type": "function"
    },
    {
      "inputs": [
        {
          "internalType": "address",
          "name": "",
          "type": "address"
        },
        {
          "internalType": "uint256",
          "name": "",
          "type": "uint256"
        }
      ],
      "name": "postsOwned",
      "outputs": [
        {
          "internalType": "bool",
          "name": "",
          "type": "bool"
        }
      ],
      "stateMutability": "view",
      "type": "function"
    },
    {
      "inputs": [],
      "name": "renounceOwnership",
      "outputs": [],
      "stateMutability": "nonpayable",
      "type": "function"
    },
    {
      "inputs": [
        {
          "internalType": "address",
          "name": "newOwner",
          "type": "address"
        }
      ],
      "name": "transferOwnership",
      "outputs": [],
      "stateMutability": "nonpayable",
      "type": "function"
    },
    {
      "inputs": [
        {
          "internalType": "string",
          "name": "contentHash",
          "type": "string"
        },
        {
          "internalType": "string",
          "name": "previewHash",
          "type": "string"
        },
        {
          "internalType": "uint256",
          "name": "price",
          "type": "uint256"
        }
      ],
      "name": "createPost",
      "outputs": [],
      "stateMutability": "nonpayable",
      "type": "function"
    },
    {
      "inputs": [
        {
          "internalType": "uint256",
          "name": "postId",
          "type": "uint256"
        },
        {
          "internalType": "uint256",
          "name": "price",
          "type": "uint256"
        },
        {
          "internalType": "string",
          "name": "contentHash",
          "type": "string"
        },
        {
          "internalType": "string",
          "name": "previewHash",
          "type": "string"
        }
      ],
      "name": "updatePost",
      "outputs": [],
      "stateMutability": "nonpayable",
      "type": "function"
    },
    {
      "inputs": [
        {
          "internalType": "address",
          "name": "purchaser",
          "type": "address"
        },
        {
          "internalType": "uint256",
          "name": "postId",
          "type": "uint256"
        }
      ],
      "name": "purchasePost",
      "outputs": [],
      "stateMutability": "payable",
      "type": "function"
    },
    {
      "inputs": [
        {
          "internalType": "address",
          "name": "newTreasury",
          "type": "address"
        }
      ],
      "name": "setTreasury",
      "outputs": [],
      "stateMutability": "nonpayable",
      "type": "function"
    }
  ],
  "bytecode": "0x608060405260006007556040516112bd3803806112bd833981016040819052610027916100ae565b6100303361005e565b6100398161005e565b600880546001600160a01b0319166001600160a01b03929092169190911790556100de565b600080546001600160a01b038381166001600160a01b0319831681178455604051919092169283917f8be0079c531659141344cd1fd0a4f28419497f9722a3daafe3b4186f6b6457e09190a35050565b6000602082840312156100c057600080fd5b81516001600160a01b03811681146100d757600080fd5b9392505050565b6111d0806100ed6000396000f3fe6080604052600436106100bc5760003560e01c8063742d931a11610074578063eb80ff6d1161004e578063eb80ff6d14610221578063f0f4426014610241578063f2fde38b1461026157600080fd5b8063742d931a146101d05780638da5cb5b146101f0578063b090b65f1461020e57600080fd5b806351533887116100a5578063515338871461014657806353f1b3ea1461017e578063715018a6146101b957600080fd5b80630b1e7f83146100c157806336c1b904146100fb575b600080fd5b3480156100cd57600080fd5b506100e16100dc366004610cd8565b610281565b6040516100f2959493929190610d37565b60405180910390f35b34801561010757600080fd5b50610136610116366004610da2565b600360209081526000928352604080842090915290825290205460ff1681565b60405190151581526020016100f2565b34801561015257600080fd5b50610166610161366004610dce565b6103cd565b6040516001600160a01b0390911681526020016100f2565b34801561018a57600080fd5b50610136610199366004610df0565b600660209081526000928352604080842090915290825290205460ff1681565b3480156101c557600080fd5b506101ce610405565b005b3480156101dc57600080fd5b506101ce6101eb366004610e63565b610419565b3480156101fc57600080fd5b506000546001600160a01b0316610166565b6101ce61021c366004610df0565b610592565b34801561022d57600080fd5b506101ce61023c366004610ed7565b6109bd565b34801561024d57600080fd5b506101ce61025c366004610f5a565b610b74565b34801561026d57600080fd5b506101ce61027c366004610f5a565b610b9e565b60046020526000908152604090208054600182015460028301805492936001600160a01b03909216926102b390610f7c565b80601f01602080910402602001604051908101604052809291908181526020018280546102df90610f7c565b801561032c5780601f106103015761010080835404028352916020019161032c565b820191906000526020600020905b81548152906001019060200180831161030f57829003601f168201915b50505050509080600301805461034190610f7c565b80601f016020809104026020016040519081016040528092919081815260200182805461036d90610f7c565b80156103ba5780601f1061038f576101008083540402835291602001916103ba565b820191906000526020600020905b81548152906001019060200180831161039d57829003601f168201915b5050506004909301549192505060ff1685565b600260205281600052604060002081815481106103e957600080fd5b6000918252602090912001546001600160a01b03169150829050565b61040d610c2e565b6104176000610c88565b565b610427600180546001019055565b600061043260015490565b90506040518060a00160405280838152602001336001600160a01b0316815260200187878080601f016020809104026020016040519081016040528093929190818152602001838380828437600092019190915250505090825250604080516020601f880181900481028201810190925286815291810191908790879081908401838280828437600092018290525093855250505060209182018190528381526004825260409081902083518155918301516001830180546001600160a01b0319166001600160a01b039092169190911790558201516002820190610517908261101b565b506060820151600382019061052c908261101b565b50608091909101516004909101805460ff191691151591909117905560405133907f67d7c5d5722b1111c2cfcbdd0a1bb0f68912cc9d69372906bd37128042cfb0ab906105829089908990899089908990611104565b60405180910390a2505050505050565b6000818152600460209081526040808320815160a0810183528154815260018201546001600160a01b03169381019390935260028101805491928401916105d890610f7c565b80601f016020809104026020016040519081016040528092919081815260200182805461060490610f7c565b80156106515780601f1061062657610100808354040283529160200191610651565b820191906000526020600020905b81548152906001019060200180831161063457829003601f168201915b5050505050815260200160038201805461066a90610f7c565b80601f016020809104026020016040519081016040528092919081815260200182805461069690610f7c565b80156106e35780601f106106b8576101008083540402835291602001916106e3565b820191906000526020600020905b8154815290600101906020018083116106c657829003601f168201915b50505091835250506004919091015460ff16151560209091015280519091503410156107565760405162461bcd60e51b815260206004820152600860248201527f706179206d6f726500000000000000000000000000000000000000000000000060448201526064015b60405180910390fd5b60208101516008546007546001600160a01b039091169060009061077a9034611154565b905060006107888234611171565b90506000846001600160a01b03168260405160006040518083038185875af1925050503d80600081146107d7576040519150601f19603f3d011682016040523d82523d6000602084013e6107dc565b606091505b50509050806108375760405162461bcd60e51b815260206004820152602160248201527f4661696c656420746f2073656e64207061796d656e7420746f2063726561746f6044820152603960f91b606482015260840161074d565b82156108e2576000846001600160a01b03168360405160006040518083038185875af1925050503d806000811461088a576040519150601f19603f3d011682016040523d82523d6000602084013e61088f565b606091505b50509050806108e05760405162461bcd60e51b815260206004820152601860248201527f4661696c656420746f2073656e642066656520746f2075730000000000000000604482015260640161074d565b505b60008781526003602090815260408083206001600160a01b038c16845282528083208054600160ff199182168117909255600684528285208c8652845282852080549091169091179055600290915290208054899190610940611184565b600091825260208083209190910180546001600160a01b0319166001600160a01b03948516179055918a1680825260058352604080832080546001810182559084529383209093018a905591518992917ffd656fb685c341681b462ffa5be492574215a3624ad9d12486dc6b090ba304fe91a35050505050505050565b6000868152600460205260409020600101546001600160a01b03163314610a265760405162461bcd60e51b815260206004820152600b60248201527f6e6f7420757220706f7374000000000000000000000000000000000000000000604482015260640161074d565b6040518060a00160405280868152602001336001600160a01b0316815260200185858080601f016020809104026020016040519081016040528093929190818152602001838380828437600092019190915250505090825250604080516020601f860181900481028201810190925284815291810191908590859081908401838280828437600092018290525093855250505060209182018190528881526004825260409081902083518155918301516001830180546001600160a01b0319166001600160a01b039092169190911790558201516002820190610b09908261101b565b5060608201516003820190610b1e908261101b565b50608091909101516004909101805460ff191691151591909117905560405133907f5504c7424ef7e7947cd1af214505f712d9a528280c7b8ef7ca87d62ea31c7f61906105829087908790879087908c90611104565b610b7c610c2e565b600880546001600160a01b0319166001600160a01b0392909216919091179055565b610ba6610c2e565b6001600160a01b038116610c225760405162461bcd60e51b815260206004820152602660248201527f4f776e61626c653a206e6577206f776e657220697320746865207a65726f206160448201527f6464726573730000000000000000000000000000000000000000000000000000606482015260840161074d565b610c2b81610c88565b50565b6000546001600160a01b031633146104175760405162461bcd60e51b815260206004820181905260248201527f4f776e61626c653a2063616c6c6572206973206e6f7420746865206f776e6572604482015260640161074d565b600080546001600160a01b038381166001600160a01b0319831681178455604051919092169283917f8be0079c531659141344cd1fd0a4f28419497f9722a3daafe3b4186f6b6457e09190a35050565b600060208284031215610cea57600080fd5b5035919050565b6000815180845260005b81811015610d1757602081850181015186830182015201610cfb565b506000602082860101526020601f19601f83011685010191505092915050565b8581526001600160a01b038516602082015260a060408201526000610d5f60a0830186610cf1565b8281036060840152610d718186610cf1565b91505082151560808301529695505050505050565b80356001600160a01b0381168114610d9d57600080fd5b919050565b60008060408385031215610db557600080fd5b82359150610dc560208401610d86565b90509250929050565b60008060408385031215610de157600080fd5b50508035926020909101359150565b60008060408385031215610e0357600080fd5b610e0c83610d86565b946020939093013593505050565b60008083601f840112610e2c57600080fd5b50813567ffffffffffffffff811115610e4457600080fd5b602083019150836020828501011115610e5c57600080fd5b9250929050565b600080600080600060608688031215610e7b57600080fd5b853567ffffffffffffffff80821115610e9357600080fd5b610e9f89838a01610e1a565b90975095506020880135915080821115610eb857600080fd5b50610ec588828901610e1a565b96999598509660400135949350505050565b60008060008060008060808789031215610ef057600080fd5b8635955060208701359450604087013567ffffffffffffffff80821115610f1657600080fd5b610f228a838b01610e1a565b90965094506060890135915080821115610f3b57600080fd5b50610f4889828a01610e1a565b979a9699509497509295939492505050565b600060208284031215610f6c57600080fd5b610f7582610d86565b9392505050565b600181811c90821680610f9057607f821691505b602082108103610fb057634e487b7160e01b600052602260045260246000fd5b50919050565b634e487b7160e01b600052604160045260246000fd5b601f82111561101657600081815260208120601f850160051c81016020861015610ff35750805b601f850160051c820191505b8181101561101257828155600101610fff565b5050505b505050565b815167ffffffffffffffff81111561103557611035610fb6565b611049816110438454610f7c565b84610fcc565b602080601f83116001811461107e57600084156110665750858301515b600019600386901b1c1916600185901b178555611012565b600085815260208120601f198616915b828110156110ad5788860151825594840194600190910190840161108e565b50858210156110cb5787850151600019600388901b60f8161c191681555b5050505050600190811b01905550565b81835281816020850137506000828201602090810191909152601f909101601f19169091010190565b6060815260006111186060830187896110db565b828103602084015261112b8186886110db565b9150508260408301529695505050505050565b634e487b7160e01b600052601160045260246000fd5b808202811582820484141761116b5761116b61113e565b92915050565b8181038181111561116b5761116b61113e565b634e487b7160e01b600052603260045260246000fdfea2646970667358221220c6543c62d0363f3f67a197bbcba69518a60e023f6b8eb2f723315ec478c8a1b364736f6c63430008130033",
  "immutableReferences": {},
  "source": "// SPDX-License-Identifier: MIT\npragma solidity ^0.8.19;\nimport \"../../node_modules/@ganache/console.log/console.sol\";\nimport \"../../node_modules/@openzeppelin/contracts/utils/Counters.sol\";\nimport \"../../node_modules/@openzeppelin/contracts/access/Ownable.sol\";\n\ncontract Simple is Ownable {\n    using Counters for Counters.Counter;\n    Counters.Counter private _postIds;\n\n    event PostCreated(\n        string contentHash,\n        string previewHash,\n        uint256 price,\n        address indexed creator\n    );\n\n    event PostUpdated(\n        string contentHash,\n        string previewHash,\n        uint256 price,\n        address indexed creator\n    );\n\n    event PostPurchased(address indexed purchaser, uint256 indexed postId);\n\n    struct post {\n        uint256 price;\n        address creator;\n        string contentHash;\n        string previewHash;\n        bool privatelyHosted;\n    }\n\n    mapping(uint256 => address[]) public ownedByArray;\n    mapping(uint256 => mapping(address => bool)) public ownedBy;\n    mapping(uint256 => post) public posts;\n    mapping(address => uint256[]) postsOwnedArray;\n    mapping(address => mapping(uint256 => bool)) public postsOwned;\n    uint256 protocolFee = 0;\n    address protocolTreasury;\n\n    constructor(address newOwner) payable {\n        _transferOwnership(newOwner);\n        protocolTreasury = newOwner;\n    }\n\n    function createPost(\n        string calldata contentHash,\n        string calldata previewHash,\n        uint256 price\n    ) public {\n        _postIds.increment();\n        uint256 postId = _postIds.current();\n        posts[postId] = post({\n            contentHash: contentHash,\n            previewHash: previewHash,\n            price: price,\n            creator: msg.sender,\n            privatelyHosted: false\n        });\n\n        emit PostCreated(contentHash, previewHash, price, msg.sender);\n    }\n\n    function updatePost(\n        uint256 postId,\n        uint256 price,\n        string calldata contentHash,\n        string calldata previewHash\n    ) public {\n        require(msg.sender == posts[postId].creator, \"not ur post\");\n        posts[postId] = post({\n            creator: msg.sender,\n            price: price,\n            contentHash: contentHash,\n            previewHash: previewHash,\n            privatelyHosted: false\n        });\n\n        emit PostUpdated(contentHash, previewHash, price, msg.sender);\n    }\n\n    function purchasePost(address purchaser, uint256 postId) public payable {\n        post memory p = posts[postId];\n        require(msg.value >= p.price, \"pay more\");\n        address payable addy = payable(p.creator);\n        address payable protoAddy = payable(protocolTreasury);\n        uint256 fee = msg.value * protocolFee;\n        uint256 royalties = msg.value - fee;\n\n        (bool success, ) = addy.call{value: royalties}(\"\");\n        require(success, \"Failed to send payment to creator\");\n\n        if (fee > 0) {\n            (bool successProto, ) = protoAddy.call{value: royalties}(\"\");\n            require(successProto, \"Failed to send fee to us\");\n        }\n\n        ownedBy[postId][purchaser] = true;\n        postsOwned[purchaser][postId] = true;\n\n        ownedByArray[postId][ownedByArray[postId].length] = purchaser;\n        postsOwnedArray[purchaser].push(postId);\n\n        emit PostPurchased(purchaser, postId);\n    }\n\n    function setTreasury(address newTreasury) external onlyOwner {\n        protocolTreasury = newTreasury;\n    }\n}\n",
  "sourcePath": "/Users/KaplanN/repos/BuidlProject/truffle/contracts/arbitrum/Simple.sol",
  "compiler": {
    "name": "solc",
    "version": "0.8.19+commit.7dd6d404.Emscripten.clang"
  },
  "schemaVersion": "3.4.12",
  "updatedAt": "2023-03-01T22:32:08.703Z",
  "devdoc": {
    "kind": "dev",
    "methods": {
      "owner()": {
        "details": "Returns the address of the current owner."
      },
      "renounceOwnership()": {
        "details": "Leaves the contract without owner. It will not be possible to call `onlyOwner` functions anymore. Can only be called by the current owner. NOTE: Renouncing ownership will leave the contract without an owner, thereby removing any functionality that is only available to the owner."
      },
      "transferOwnership(address)": {
        "details": "Transfers ownership of the contract to a new account (`newOwner`). Can only be called by the current owner."
      }
    },
    "version": 1
  },
  "userdoc": {
    "kind": "user",
    "methods": {},
    "version": 1
  }
}