{
  "_format": "hh-sol-artifact-1",
  "contractName": "Simple",
  "sourceName": "contracts/Simple.sol",
  "abi": [
    {
      "inputs": [
        {
          "internalType": "address",
          "name": "newOwner",
          "type": "address"
        }
      ],
      "stateMutability": "payable",
      "type": "constructor"
    },
    {
      "anonymous": false,
      "inputs": [
        {
          "indexed": true,
          "internalType": "address",
          "name": "previousOwner",
          "type": "address"
        },
        {
          "indexed": true,
          "internalType": "address",
          "name": "newOwner",
          "type": "address"
        }
      ],
      "name": "OwnershipTransferred",
      "type": "event"
    },
    {
      "anonymous": false,
      "inputs": [
        {
          "indexed": false,
          "internalType": "string",
          "name": "contentHash",
          "type": "string"
        },
        {
          "indexed": false,
          "internalType": "string",
          "name": "previewHash",
          "type": "string"
        },
        {
          "indexed": false,
          "internalType": "uint256",
          "name": "price",
          "type": "uint256"
        },
        {
          "indexed": true,
          "internalType": "address",
          "name": "creator",
          "type": "address"
        }
      ],
      "name": "PostCreated",
      "type": "event"
    },
    {
      "anonymous": false,
      "inputs": [
        {
          "indexed": true,
          "internalType": "uint256",
          "name": "postId",
          "type": "uint256"
        }
      ],
      "name": "PostDisabled",
      "type": "event"
    },
    {
      "anonymous": false,
      "inputs": [
        {
          "indexed": true,
          "internalType": "uint256",
          "name": "postId",
          "type": "uint256"
        }
      ],
      "name": "PostEnabled",
      "type": "event"
    },
    {
      "anonymous": false,
      "inputs": [
        {
          "indexed": true,
          "internalType": "address",
          "name": "purchaser",
          "type": "address"
        },
        {
          "indexed": true,
          "internalType": "uint256",
          "name": "postId",
          "type": "uint256"
        }
      ],
      "name": "PostPurchased",
      "type": "event"
    },
    {
      "anonymous": false,
      "inputs": [
        {
          "indexed": false,
          "internalType": "string",
          "name": "contentHash",
          "type": "string"
        },
        {
          "indexed": false,
          "internalType": "string",
          "name": "previewHash",
          "type": "string"
        },
        {
          "indexed": true,
          "internalType": "uint256",
          "name": "postId",
          "type": "uint256"
        }
      ],
      "name": "PostUpdated",
      "type": "event"
    },
    {
      "anonymous": false,
      "inputs": [
        {
          "indexed": true,
          "internalType": "uint256",
          "name": "postId",
          "type": "uint256"
        },
        {
          "indexed": false,
          "internalType": "uint256",
          "name": "price",
          "type": "uint256"
        }
      ],
      "name": "PriceUpdated",
      "type": "event"
    },
    {
      "inputs": [
        {
          "internalType": "uint256",
          "name": "postId",
          "type": "uint256"
        },
        {
          "internalType": "address",
          "name": "addyThatWantsToSeeIt",
          "type": "address"
        }
      ],
      "name": "addressCanSeePost",
      "outputs": [
        {
          "internalType": "bool",
          "name": "",
          "type": "bool"
        }
      ],
      "stateMutability": "view",
      "type": "function"
    },
    {
      "inputs": [
        {
          "internalType": "string",
          "name": "contentHash",
          "type": "string"
        },
        {
          "internalType": "string",
          "name": "previewHash",
          "type": "string"
        },
        {
          "internalType": "uint256",
          "name": "price",
          "type": "uint256"
        }
      ],
      "name": "createPost",
      "outputs": [],
      "stateMutability": "nonpayable",
      "type": "function"
    },
    {
      "inputs": [
        {
          "internalType": "uint256",
          "name": "",
          "type": "uint256"
        },
        {
          "internalType": "address",
          "name": "",
          "type": "address"
        }
      ],
      "name": "ownedBy",
      "outputs": [
        {
          "internalType": "bool",
          "name": "",
          "type": "bool"
        }
      ],
      "stateMutability": "view",
      "type": "function"
    },
    {
      "inputs": [
        {
          "internalType": "uint256",
          "name": "",
          "type": "uint256"
        },
        {
          "internalType": "uint256",
          "name": "",
          "type": "uint256"
        }
      ],
      "name": "ownedByArray",
      "outputs": [
        {
          "internalType": "address",
          "name": "",
          "type": "address"
        }
      ],
      "stateMutability": "view",
      "type": "function"
    },
    {
      "inputs": [],
      "name": "owner",
      "outputs": [
        {
          "internalType": "address",
          "name": "",
          "type": "address"
        }
      ],
      "stateMutability": "view",
      "type": "function"
    },
    {
      "inputs": [
        {
          "internalType": "uint256",
          "name": "postId",
          "type": "uint256"
        }
      ],
      "name": "ownersOfPost",
      "outputs": [
        {
          "internalType": "address[]",
          "name": "",
          "type": "address[]"
        }
      ],
      "stateMutability": "view",
      "type": "function"
    },
    {
      "inputs": [
        {
          "internalType": "uint256",
          "name": "",
          "type": "uint256"
        }
      ],
      "name": "posts",
      "outputs": [
        {
          "internalType": "uint256",
          "name": "price",
          "type": "uint256"
        },
        {
          "internalType": "address",
          "name": "creator",
          "type": "address"
        },
        {
          "internalType": "string",
          "name": "contentHash",
          "type": "string"
        },
        {
          "internalType": "string",
          "name": "previewHash",
          "type": "string"
        },
        {
          "internalType": "bool",
          "name": "disabled",
          "type": "bool"
        }
      ],
      "stateMutability": "view",
      "type": "function"
    },
    {
      "inputs": [
        {
          "internalType": "address",
          "name": "addy",
          "type": "address"
        }
      ],
      "name": "postsByAddress",
      "outputs": [
        {
          "internalType": "uint256[]",
          "name": "",
          "type": "uint256[]"
        }
      ],
      "stateMutability": "view",
      "type": "function"
    },
    {
      "inputs": [
        {
          "internalType": "address",
          "name": "",
          "type": "address"
        },
        {
          "internalType": "uint256",
          "name": "",
          "type": "uint256"
        }
      ],
      "name": "postsCreatedArray",
      "outputs": [
        {
          "internalType": "uint256",
          "name": "",
          "type": "uint256"
        }
      ],
      "stateMutability": "view",
      "type": "function"
    },
    {
      "inputs": [
        {
          "internalType": "address",
          "name": "",
          "type": "address"
        },
        {
          "internalType": "uint256",
          "name": "",
          "type": "uint256"
        }
      ],
      "name": "postsOwned",
      "outputs": [
        {
          "internalType": "bool",
          "name": "",
          "type": "bool"
        }
      ],
      "stateMutability": "view",
      "type": "function"
    },
    {
      "inputs": [
        {
          "internalType": "address",
          "name": "addy",
          "type": "address"
        }
      ],
      "name": "postsOwnedByAddress",
      "outputs": [
        {
          "internalType": "uint256[]",
          "name": "",
          "type": "uint256[]"
        }
      ],
      "stateMutability": "view",
      "type": "function"
    },
    {
      "inputs": [
        {
          "internalType": "address",
          "name": "purchaser",
          "type": "address"
        },
        {
          "internalType": "uint256",
          "name": "postId",
          "type": "uint256"
        }
      ],
      "name": "purchasePost",
      "outputs": [],
      "stateMutability": "payable",
      "type": "function"
    },
    {
      "inputs": [],
      "name": "renounceOwnership",
      "outputs": [],
      "stateMutability": "nonpayable",
      "type": "function"
    },
    {
      "inputs": [
        {
          "internalType": "uint8",
          "name": "newFee",
          "type": "uint8"
        }
      ],
      "name": "setProtocolFee",
      "outputs": [],
      "stateMutability": "nonpayable",
      "type": "function"
    },
    {
      "inputs": [
        {
          "internalType": "address",
          "name": "newTreasury",
          "type": "address"
        }
      ],
      "name": "setTreasury",
      "outputs": [],
      "stateMutability": "nonpayable",
      "type": "function"
    },
    {
      "inputs": [
        {
          "internalType": "uint256",
          "name": "postId",
          "type": "uint256"
        },
        {
          "internalType": "bool",
          "name": "disabled",
          "type": "bool"
        }
      ],
      "name": "toggleNewPurchasesEnabled",
      "outputs": [],
      "stateMutability": "nonpayable",
      "type": "function"
    },
    {
      "inputs": [
        {
          "internalType": "address",
          "name": "newOwner",
          "type": "address"
        }
      ],
      "name": "transferOwnership",
      "outputs": [],
      "stateMutability": "nonpayable",
      "type": "function"
    },
    {
      "inputs": [
        {
          "internalType": "uint256",
          "name": "postId",
          "type": "uint256"
        },
        {
          "internalType": "uint256",
          "name": "price",
          "type": "uint256"
        }
      ],
      "name": "updatePrice",
      "outputs": [],
      "stateMutability": "nonpayable",
      "type": "function"
    }
  ],
  "bytecode": "0x60806040526000600860006101000a81548160ff021916908360ff16021790555060405162002c5538038062002c558339818101604052810190620000459190620001f4565b6200006562000059620000be60201b60201c565b620000c660201b60201c565b6200007681620000c660201b60201c565b80600860016101000a81548173ffffffffffffffffffffffffffffffffffffffff021916908373ffffffffffffffffffffffffffffffffffffffff1602179055505062000226565b600033905090565b60008060009054906101000a900473ffffffffffffffffffffffffffffffffffffffff169050816000806101000a81548173ffffffffffffffffffffffffffffffffffffffff021916908373ffffffffffffffffffffffffffffffffffffffff1602179055508173ffffffffffffffffffffffffffffffffffffffff168173ffffffffffffffffffffffffffffffffffffffff167f8be0079c531659141344cd1fd0a4f28419497f9722a3daafe3b4186f6b6457e060405160405180910390a35050565b600080fd5b600073ffffffffffffffffffffffffffffffffffffffff82169050919050565b6000620001bc826200018f565b9050919050565b620001ce81620001af565b8114620001da57600080fd5b50565b600081519050620001ee81620001c3565b92915050565b6000602082840312156200020d576200020c6200018a565b5b60006200021d84828501620001dd565b91505092915050565b612a1f80620002366000396000f3fe6080604052600436106101095760003560e01c806382367b2d11610095578063b521635011610064578063b521635014610382578063bf62dfb2146103bf578063d369f73b146103fc578063f0f4426014610439578063f2fde38b1461046257610109565b806382367b2d146102d55780638da5cb5b146102fe578063ac013c0e14610329578063b090b65f1461036657610109565b806351533887116100dc57806351533887146101f257806353f1b3ea1461022f578063715018a61461026c578063742d931a1461028357806376b18a65146102ac57610109565b80630b1e7f831461010e57806336c1b9041461014f57806342985ef31461018c5780634e91f811146101c9575b600080fd5b34801561011a57600080fd5b5061013560048036038101906101309190611b81565b61048b565b604051610146959493929190611cb2565b60405180910390f35b34801561015b57600080fd5b5061017660048036038101906101719190611d3f565b6105fe565b6040516101839190611d7f565b60405180910390f35b34801561019857600080fd5b506101b360048036038101906101ae9190611d9a565b61062d565b6040516101c09190611e85565b60405180910390f35b3480156101d557600080fd5b506101f060048036038101906101eb9190611ee0565b610762565b005b3480156101fe57600080fd5b5061021960048036038101906102149190611f0d565b61088a565b6040516102269190611f4d565b60405180910390f35b34801561023b57600080fd5b5061025660048036038101906102519190611f68565b6108d8565b6040516102639190611d7f565b60405180910390f35b34801561027857600080fd5b50610281610907565b005b34801561028f57600080fd5b506102aa60048036038101906102a5919061200d565b61098f565b005b3480156102b857600080fd5b506102d360048036038101906102ce91906120ce565b610c38565b005b3480156102e157600080fd5b506102fc60048036038101906102f79190611f0d565b610dde565b005b34801561030a57600080fd5b50610313610ed9565b6040516103209190611f4d565b60405180910390f35b34801561033557600080fd5b50610350600480360381019061034b9190611d9a565b610f02565b60405161035d9190611e85565b60405180910390f35b610380600480360381019061037b9190611f68565b611037565b005b34801561038e57600080fd5b506103a960048036038101906103a49190611b81565b61160a565b6040516103b691906121cc565b60405180910390f35b3480156103cb57600080fd5b506103e660048036038101906103e19190611f68565b611735565b6040516103f391906121ee565b60405180910390f35b34801561040857600080fd5b50610423600480360381019061041e9190611d3f565b611766565b6040516104309190611d7f565b60405180910390f35b34801561044557600080fd5b50610460600480360381019061045b9190611d9a565b6117f6565b005b34801561046e57600080fd5b5061048960048036038101906104849190611d9a565b6118b6565b005b60046020528060005260406000206000915090508060000154908060010160009054906101000a900473ffffffffffffffffffffffffffffffffffffffff16908060020180546104da90612238565b80601f016020809104026020016040519081016040528092919081815260200182805461050690612238565b80156105535780601f1061052857610100808354040283529160200191610553565b820191906000526020600020905b81548152906001019060200180831161053657829003601f168201915b50505050509080600301805461056890612238565b80601f016020809104026020016040519081016040528092919081815260200182805461059490612238565b80156105e15780601f106105b6576101008083540402835291602001916105e1565b820191906000526020600020905b8154815290600101906020018083116105c457829003601f168201915b5050505050908060040160009054906101000a900460ff16905085565b60036020528160005260406000206020528060005260406000206000915091509054906101000a900460ff1681565b60606000600560008473ffffffffffffffffffffffffffffffffffffffff1673ffffffffffffffffffffffffffffffffffffffff1681526020019081526020016000208054905067ffffffffffffffff81111561068d5761068c61226a565b5b6040519080825280602002602001820160405280156106bb5781602001602082028036833780820191505090505b50905060005b815181101561075857600560008573ffffffffffffffffffffffffffffffffffffffff1673ffffffffffffffffffffffffffffffffffffffff168152602001908152602001600020818154811061071b5761071a612299565b5b906000526020600020015482828151811061073957610738612299565b5b6020026020010181815250508080610750906122f7565b9150506106c1565b5080915050919050565b61076a6119ae565b73ffffffffffffffffffffffffffffffffffffffff16610788610ed9565b73ffffffffffffffffffffffffffffffffffffffff16146107de576040517f08c379a00000000000000000000000000000000000000000000000000000000081526004016107d59061238c565b60405180910390fd5b60008160ff161015610825576040517f08c379a000000000000000000000000000000000000000000000000000000000815260040161081c906123f8565b60405180910390fd5b60128160ff16111561086c576040517f08c379a000000000000000000000000000000000000000000000000000000000815260040161086390612464565b60405180910390fd5b80600860006101000a81548160ff021916908360ff16021790555050565b600260205281600052604060002081815481106108a657600080fd5b906000526020600020016000915091509054906101000a900473ffffffffffffffffffffffffffffffffffffffff1681565b60066020528160005260406000206020528060005260406000206000915091509054906101000a900460ff1681565b61090f6119ae565b73ffffffffffffffffffffffffffffffffffffffff1661092d610ed9565b73ffffffffffffffffffffffffffffffffffffffff1614610983576040517f08c379a000000000000000000000000000000000000000000000000000000000815260040161097a9061238c565b60405180910390fd5b61098d60006119b6565b565b60008110156109d3576040517f08c379a00000000000000000000000000000000000000000000000000000000081526004016109ca906124d0565b60405180910390fd5b6109dd6001611a7a565b60006109e96001611a90565b90506040518060a001604052808381526020013373ffffffffffffffffffffffffffffffffffffffff16815260200187878080601f016020809104026020016040519081016040528093929190818152602001838380828437600081840152601f19601f82011690508083019250505050505050815260200185858080601f016020809104026020016040519081016040528093929190818152602001838380828437600081840152601f19601f82011690508083019250505050505050815260200160001515815250600460008381526020019081526020016000206000820151816000015560208201518160010160006101000a81548173ffffffffffffffffffffffffffffffffffffffff021916908373ffffffffffffffffffffffffffffffffffffffff1602179055506040820151816002019080519060200190610b33929190611a9e565b506060820151816003019080519060200190610b50929190611a9e565b5060808201518160040160006101000a81548160ff021916908315150217905550905050600760003373ffffffffffffffffffffffffffffffffffffffff1673ffffffffffffffffffffffffffffffffffffffff1681526020019081526020016000208190806001815401808255809150506001900390600052602060002001600090919091909150553373ffffffffffffffffffffffffffffffffffffffff167f67d7c5d5722b1111c2cfcbdd0a1bb0f68912cc9d69372906bd37128042cfb0ab8787878787604051610c2895949392919061252c565b60405180910390a2505050505050565b6004600083815260200190815260200160002060010160009054906101000a900473ffffffffffffffffffffffffffffffffffffffff1673ffffffffffffffffffffffffffffffffffffffff163373ffffffffffffffffffffffffffffffffffffffff1614610cdc576040517f08c379a0000000000000000000000000000000000000000000000000000000008152600401610cd3906125c1565b60405180910390fd5b8015156004600084815260200190815260200160002060040160009054906101000a900460ff1615151415610d46576040517f08c379a0000000000000000000000000000000000000000000000000000000008152600401610d3d9061262d565b60405180910390fd5b806004600084815260200190815260200160002060040160006101000a81548160ff0219169083151502179055508015610dac57817f0c48d600979c2ea5df710357b6601b1c93f522872a42b779eeaff0dbe388adbb60405160405180910390a2610dda565b817f9f5aa107147e8677760aa7868a3dbea6ad28dcc7f25cc65b61cdfa234e958a5c60405160405180910390a25b5050565b6004600083815260200190815260200160002060010160009054906101000a900473ffffffffffffffffffffffffffffffffffffffff1673ffffffffffffffffffffffffffffffffffffffff163373ffffffffffffffffffffffffffffffffffffffff1614610e82576040517f08c379a0000000000000000000000000000000000000000000000000000000008152600401610e7990612699565b60405180910390fd5b806004600084815260200190815260200160002060000181905550807f945c1c4e99aa89f648fbfe3df471b916f719e16d960fcec0737d4d56bd69683883604051610ecd91906121ee565b60405180910390a25050565b60008060009054906101000a900473ffffffffffffffffffffffffffffffffffffffff16905090565b60606000600760008473ffffffffffffffffffffffffffffffffffffffff1673ffffffffffffffffffffffffffffffffffffffff1681526020019081526020016000208054905067ffffffffffffffff811115610f6257610f6161226a565b5b604051908082528060200260200182016040528015610f905781602001602082028036833780820191505090505b50905060005b815181101561102d57600760008573ffffffffffffffffffffffffffffffffffffffff1673ffffffffffffffffffffffffffffffffffffffff1681526020019081526020016000208181548110610ff057610fef612299565b5b906000526020600020015482828151811061100e5761100d612299565b5b6020026020010181815250508080611025906122f7565b915050610f96565b5080915050919050565b6000600460008381526020019081526020016000206040518060a0016040529081600082015481526020016001820160009054906101000a900473ffffffffffffffffffffffffffffffffffffffff1673ffffffffffffffffffffffffffffffffffffffff1673ffffffffffffffffffffffffffffffffffffffff1681526020016002820180546110c790612238565b80601f01602080910402602001604051908101604052809291908181526020018280546110f390612238565b80156111405780601f1061111557610100808354040283529160200191611140565b820191906000526020600020905b81548152906001019060200180831161112357829003601f168201915b5050505050815260200160038201805461115990612238565b80601f016020809104026020016040519081016040528092919081815260200182805461118590612238565b80156111d25780601f106111a7576101008083540402835291602001916111d2565b820191906000526020600020905b8154815290600101906020018083116111b557829003601f168201915b505050505081526020016004820160009054906101000a900460ff1615151515815250509050806000015134101561123f576040517f08c379a000000000000000000000000000000000000000000000000000000000815260040161123690612705565b60405180910390fd5b6000816020015190506000600860019054906101000a900473ffffffffffffffffffffffffffffffffffffffff16905060006064600860009054906101000a900460ff1660ff16346112919190612725565b61129b91906127ae565b9050600081346112ab91906127df565b905060008473ffffffffffffffffffffffffffffffffffffffff16826040516112d390612844565b60006040518083038185875af1925050503d8060008114611310576040519150601f19603f3d011682016040523d82523d6000602084013e611315565b606091505b5050905080611359576040517f08c379a0000000000000000000000000000000000000000000000000000000008152600401611350906128cb565b60405180910390fd5b60008311156114105760008473ffffffffffffffffffffffffffffffffffffffff168460405161138890612844565b60006040518083038185875af1925050503d80600081146113c5576040519150601f19603f3d011682016040523d82523d6000602084013e6113ca565b606091505b505090508061140e576040517f08c379a000000000000000000000000000000000000000000000000000000000815260040161140590612937565b60405180910390fd5b505b60016003600089815260200190815260200160002060008a73ffffffffffffffffffffffffffffffffffffffff1673ffffffffffffffffffffffffffffffffffffffff16815260200190815260200160002060006101000a81548160ff0219169083151502179055506001600660008a73ffffffffffffffffffffffffffffffffffffffff1673ffffffffffffffffffffffffffffffffffffffff168152602001908152602001600020600089815260200190815260200160002060006101000a81548160ff02191690831515021790555060026000888152602001908152602001600020889080600181540180825580915050600190039060005260206000200160009091909190916101000a81548173ffffffffffffffffffffffffffffffffffffffff021916908373ffffffffffffffffffffffffffffffffffffffff160217905550600560008973ffffffffffffffffffffffffffffffffffffffff1673ffffffffffffffffffffffffffffffffffffffff168152602001908152602001600020879080600181540180825580915050600190039060005260206000200160009091909190915055868873ffffffffffffffffffffffffffffffffffffffff167ffd656fb685c341681b462ffa5be492574215a3624ad9d12486dc6b090ba304fe60405160405180910390a35050505050505050565b60606000600260008481526020019081526020016000208054905067ffffffffffffffff81111561163e5761163d61226a565b5b60405190808252806020026020018201604052801561166c5781602001602082028036833780820191505090505b50905060005b815181101561172b576002600085815260200190815260200160002081815481106116a05761169f612299565b5b9060005260206000200160009054906101000a900473ffffffffffffffffffffffffffffffffffffffff168282815181106116de576116dd612299565b5b602002602001019073ffffffffffffffffffffffffffffffffffffffff16908173ffffffffffffffffffffffffffffffffffffffff16815250508080611723906122f7565b915050611672565b5080915050919050565b6007602052816000526040600020818154811061175157600080fd5b90600052602060002001600091509150505481565b6000806004600085815260200190815260200160002060000154141561178f57600190506117f0565b6003600084815260200190815260200160002060008373ffffffffffffffffffffffffffffffffffffffff1673ffffffffffffffffffffffffffffffffffffffff16815260200190815260200160002060009054906101000a900460ff1690505b92915050565b6117fe6119ae565b73ffffffffffffffffffffffffffffffffffffffff1661181c610ed9565b73ffffffffffffffffffffffffffffffffffffffff1614611872576040517f08c379a00000000000000000000000000000000000000000000000000000000081526004016118699061238c565b60405180910390fd5b80600860016101000a81548173ffffffffffffffffffffffffffffffffffffffff021916908373ffffffffffffffffffffffffffffffffffffffff16021790555050565b6118be6119ae565b73ffffffffffffffffffffffffffffffffffffffff166118dc610ed9565b73ffffffffffffffffffffffffffffffffffffffff1614611932576040517f08c379a00000000000000000000000000000000000000000000000000000000081526004016119299061238c565b60405180910390fd5b600073ffffffffffffffffffffffffffffffffffffffff168173ffffffffffffffffffffffffffffffffffffffff1614156119a2576040517f08c379a0000000000000000000000000000000000000000000000000000000008152600401611999906129c9565b60405180910390fd5b6119ab816119b6565b50565b600033905090565b60008060009054906101000a900473ffffffffffffffffffffffffffffffffffffffff169050816000806101000a81548173ffffffffffffffffffffffffffffffffffffffff021916908373ffffffffffffffffffffffffffffffffffffffff1602179055508173ffffffffffffffffffffffffffffffffffffffff168173ffffffffffffffffffffffffffffffffffffffff167f8be0079c531659141344cd1fd0a4f28419497f9722a3daafe3b4186f6b6457e060405160405180910390a35050565b6001816000016000828254019250508190555050565b600081600001549050919050565b828054611aaa90612238565b90600052602060002090601f016020900481019282611acc5760008555611b13565b82601f10611ae557805160ff1916838001178555611b13565b82800160010185558215611b13579182015b82811115611b12578251825591602001919060010190611af7565b5b509050611b209190611b24565b5090565b5b80821115611b3d576000816000905550600101611b25565b5090565b600080fd5b600080fd5b6000819050919050565b611b5e81611b4b565b8114611b6957600080fd5b50565b600081359050611b7b81611b55565b92915050565b600060208284031215611b9757611b96611b41565b5b6000611ba584828501611b6c565b91505092915050565b611bb781611b4b565b82525050565b600073ffffffffffffffffffffffffffffffffffffffff82169050919050565b6000611be882611bbd565b9050919050565b611bf881611bdd565b82525050565b600081519050919050565b600082825260208201905092915050565b60005b83811015611c38578082015181840152602081019050611c1d565b83811115611c47576000848401525b50505050565b6000601f19601f8301169050919050565b6000611c6982611bfe565b611c738185611c09565b9350611c83818560208601611c1a565b611c8c81611c4d565b840191505092915050565b60008115159050919050565b611cac81611c97565b82525050565b600060a082019050611cc76000830188611bae565b611cd46020830187611bef565b8181036040830152611ce68186611c5e565b90508181036060830152611cfa8185611c5e565b9050611d096080830184611ca3565b9695505050505050565b611d1c81611bdd565b8114611d2757600080fd5b50565b600081359050611d3981611d13565b92915050565b60008060408385031215611d5657611d55611b41565b5b6000611d6485828601611b6c565b9250506020611d7585828601611d2a565b9150509250929050565b6000602082019050611d946000830184611ca3565b92915050565b600060208284031215611db057611daf611b41565b5b6000611dbe84828501611d2a565b91505092915050565b600081519050919050565b600082825260208201905092915050565b6000819050602082019050919050565b611dfc81611b4b565b82525050565b6000611e0e8383611df3565b60208301905092915050565b6000602082019050919050565b6000611e3282611dc7565b611e3c8185611dd2565b9350611e4783611de3565b8060005b83811015611e78578151611e5f8882611e02565b9750611e6a83611e1a565b925050600181019050611e4b565b5085935050505092915050565b60006020820190508181036000830152611e9f8184611e27565b905092915050565b600060ff82169050919050565b611ebd81611ea7565b8114611ec857600080fd5b50565b600081359050611eda81611eb4565b92915050565b600060208284031215611ef657611ef5611b41565b5b6000611f0484828501611ecb565b91505092915050565b60008060408385031215611f2457611f23611b41565b5b6000611f3285828601611b6c565b9250506020611f4385828601611b6c565b9150509250929050565b6000602082019050611f626000830184611bef565b92915050565b60008060408385031215611f7f57611f7e611b41565b5b6000611f8d85828601611d2a565b9250506020611f9e85828601611b6c565b9150509250929050565b600080fd5b600080fd5b600080fd5b60008083601f840112611fcd57611fcc611fa8565b5b8235905067ffffffffffffffff811115611fea57611fe9611fad565b5b60208301915083600182028301111561200657612005611fb2565b5b9250929050565b60008060008060006060868803121561202957612028611b41565b5b600086013567ffffffffffffffff81111561204757612046611b46565b5b61205388828901611fb7565b9550955050602086013567ffffffffffffffff81111561207657612075611b46565b5b61208288828901611fb7565b9350935050604061209588828901611b6c565b9150509295509295909350565b6120ab81611c97565b81146120b657600080fd5b50565b6000813590506120c8816120a2565b92915050565b600080604083850312156120e5576120e4611b41565b5b60006120f385828601611b6c565b9250506020612104858286016120b9565b9150509250929050565b600081519050919050565b600082825260208201905092915050565b6000819050602082019050919050565b61214381611bdd565b82525050565b6000612155838361213a565b60208301905092915050565b6000602082019050919050565b60006121798261210e565b6121838185612119565b935061218e8361212a565b8060005b838110156121bf5781516121a68882612149565b97506121b183612161565b925050600181019050612192565b5085935050505092915050565b600060208201905081810360008301526121e6818461216e565b905092915050565b60006020820190506122036000830184611bae565b92915050565b7f4e487b7100000000000000000000000000000000000000000000000000000000600052602260045260246000fd5b6000600282049050600182168061225057607f821691505b6020821081141561226457612263612209565b5b50919050565b7f4e487b7100000000000000000000000000000000000000000000000000000000600052604160045260246000fd5b7f4e487b7100000000000000000000000000000000000000000000000000000000600052603260045260246000fd5b7f4e487b7100000000000000000000000000000000000000000000000000000000600052601160045260246000fd5b600061230282611b4b565b91507fffffffffffffffffffffffffffffffffffffffffffffffffffffffffffffffff821415612335576123346122c8565b5b600182019050919050565b7f4f776e61626c653a2063616c6c6572206973206e6f7420746865206f776e6572600082015250565b6000612376602083611c09565b915061238182612340565b602082019050919050565b600060208201905081810360008301526123a581612369565b9050919050565b7f7765206e6f207061792066656500000000000000000000000000000000000000600082015250565b60006123e2600d83611c09565b91506123ed826123ac565b602082019050919050565b60006020820190508181036000830152612411816123d5565b9050919050565b7f6c657473206e6f20676574206372617a79206e6f770000000000000000000000600082015250565b600061244e601583611c09565b915061245982612418565b602082019050919050565b6000602082019050818103600083015261247d81612441565b9050919050565b7f7765206e6f2070617920796f7500000000000000000000000000000000000000600082015250565b60006124ba600d83611c09565b91506124c582612484565b602082019050919050565b600060208201905081810360008301526124e9816124ad565b9050919050565b82818337600083830152505050565b600061250b8385611c09565b93506125188385846124f0565b61252183611c4d565b840190509392505050565b600060608201905081810360008301526125478187896124ff565b9050818103602083015261255c8185876124ff565b905061256b6040830184611bae565b9695505050505050565b7f6e6f7420757220706f73742063616e742064697361626c650000000000000000600082015250565b60006125ab601883611c09565b91506125b682612575565b602082019050919050565b600060208201905081810360008301526125da8161259e565b9050919050565b7f616c726561647920736574206c696b6520746861740000000000000000000000600082015250565b6000612617601583611c09565b9150612622826125e1565b602082019050919050565b600060208201905081810360008301526126468161260a565b9050919050565b7f6e6f7420757220706f73742063616e74206368616e6765207072696365000000600082015250565b6000612683601d83611c09565b915061268e8261264d565b602082019050919050565b600060208201905081810360008301526126b281612676565b9050919050565b7f706179206d6f7265000000000000000000000000000000000000000000000000600082015250565b60006126ef600883611c09565b91506126fa826126b9565b602082019050919050565b6000602082019050818103600083015261271e816126e2565b9050919050565b600061273082611b4b565b915061273b83611b4b565b9250817fffffffffffffffffffffffffffffffffffffffffffffffffffffffffffffffff0483118215151615612774576127736122c8565b5b828202905092915050565b7f4e487b7100000000000000000000000000000000000000000000000000000000600052601260045260246000fd5b60006127b982611b4b565b91506127c483611b4b565b9250826127d4576127d361277f565b5b828204905092915050565b60006127ea82611b4b565b91506127f583611b4b565b925082821015612808576128076122c8565b5b828203905092915050565b600081905092915050565b50565b600061282e600083612813565b91506128398261281e565b600082019050919050565b600061284f82612821565b9150819050919050565b7f4661696c656420746f2073656e64207061796d656e7420746f2063726561746f60008201527f7200000000000000000000000000000000000000000000000000000000000000602082015250565b60006128b5602183611c09565b91506128c082612859565b604082019050919050565b600060208201905081810360008301526128e4816128a8565b9050919050565b7f4661696c656420746f2073656e642066656520746f2075730000000000000000600082015250565b6000612921601883611c09565b915061292c826128eb565b602082019050919050565b6000602082019050818103600083015261295081612914565b9050919050565b7f4f776e61626c653a206e6577206f776e657220697320746865207a65726f206160008201527f6464726573730000000000000000000000000000000000000000000000000000602082015250565b60006129b3602683611c09565b91506129be82612957565b604082019050919050565b600060208201905081810360008301526129e2816129a6565b905091905056fea264697066735822122048a179cad6b5fe0b4753202cb0b2413f67444a0e7c7a7fa8558f22da685d7a2064736f6c63430008090033",
  "linkReferences": {},
  "deployedLinkReferences": {}
}