{
  "_format": "hh-sol-artifact-1",
  "contractName": "Simple",
  "sourceName": "contracts/Simple.sol",
  "abi": [
    {
      "inputs": [
        {
          "internalType": "address",
          "name": "newOwner",
          "type": "address"
        }
      ],
      "stateMutability": "payable",
      "type": "constructor"
    },
    {
      "anonymous": false,
      "inputs": [
        {
          "indexed": true,
          "internalType": "address",
          "name": "previousOwner",
          "type": "address"
        },
        {
          "indexed": true,
          "internalType": "address",
          "name": "newOwner",
          "type": "address"
        }
      ],
      "name": "OwnershipTransferred",
      "type": "event"
    },
    {
      "anonymous": false,
      "inputs": [
        {
          "indexed": false,
          "internalType": "string",
          "name": "contentHash",
          "type": "string"
        },
        {
          "indexed": false,
          "internalType": "string",
          "name": "previewHash",
          "type": "string"
        },
        {
          "indexed": false,
          "internalType": "uint256",
          "name": "price",
          "type": "uint256"
        },
        {
          "indexed": true,
          "internalType": "address",
          "name": "creator",
          "type": "address"
        }
      ],
      "name": "PostCreated",
      "type": "event"
    },
    {
      "anonymous": false,
      "inputs": [
        {
          "indexed": true,
          "internalType": "uint256",
          "name": "postId",
          "type": "uint256"
        }
      ],
      "name": "PostDisabled",
      "type": "event"
    },
    {
      "anonymous": false,
      "inputs": [
        {
          "indexed": true,
          "internalType": "uint256",
          "name": "postId",
          "type": "uint256"
        }
      ],
      "name": "PostEnabled",
      "type": "event"
    },
    {
      "anonymous": false,
      "inputs": [
        {
          "indexed": true,
          "internalType": "address",
          "name": "purchaser",
          "type": "address"
        },
        {
          "indexed": true,
          "internalType": "uint256",
          "name": "postId",
          "type": "uint256"
        }
      ],
      "name": "PostPurchased",
      "type": "event"
    },
    {
      "anonymous": false,
      "inputs": [
        {
          "indexed": false,
          "internalType": "string",
          "name": "contentHash",
          "type": "string"
        },
        {
          "indexed": false,
          "internalType": "string",
          "name": "previewHash",
          "type": "string"
        },
        {
          "indexed": true,
          "internalType": "uint256",
          "name": "postId",
          "type": "uint256"
        }
      ],
      "name": "PostUpdated",
      "type": "event"
    },
    {
      "anonymous": false,
      "inputs": [
        {
          "indexed": true,
          "internalType": "uint256",
          "name": "postId",
          "type": "uint256"
        },
        {
          "indexed": false,
          "internalType": "uint256",
          "name": "price",
          "type": "uint256"
        }
      ],
      "name": "PriceUpdated",
      "type": "event"
    },
    {
      "inputs": [
        {
          "internalType": "uint256",
          "name": "postId",
          "type": "uint256"
        },
        {
          "internalType": "address",
          "name": "addyThatWantsToSeeIt",
          "type": "address"
        }
      ],
      "name": "addressCanSeePost",
      "outputs": [
        {
          "internalType": "bool",
          "name": "",
          "type": "bool"
        }
      ],
      "stateMutability": "view",
      "type": "function"
    },
    {
      "inputs": [
        {
          "internalType": "string",
          "name": "contentHash",
          "type": "string"
        },
        {
          "internalType": "string",
          "name": "previewHash",
          "type": "string"
        },
        {
          "internalType": "uint256",
          "name": "price",
          "type": "uint256"
        }
      ],
      "name": "createPost",
      "outputs": [],
      "stateMutability": "nonpayable",
      "type": "function"
    },
    {
      "inputs": [
        {
          "internalType": "uint256",
          "name": "",
          "type": "uint256"
        },
        {
          "internalType": "address",
          "name": "",
          "type": "address"
        }
      ],
      "name": "ownedBy",
      "outputs": [
        {
          "internalType": "bool",
          "name": "",
          "type": "bool"
        }
      ],
      "stateMutability": "view",
      "type": "function"
    },
    {
      "inputs": [
        {
          "internalType": "uint256",
          "name": "",
          "type": "uint256"
        },
        {
          "internalType": "uint256",
          "name": "",
          "type": "uint256"
        }
      ],
      "name": "ownedByArray",
      "outputs": [
        {
          "internalType": "address",
          "name": "",
          "type": "address"
        }
      ],
      "stateMutability": "view",
      "type": "function"
    },
    {
      "inputs": [],
      "name": "owner",
      "outputs": [
        {
          "internalType": "address",
          "name": "",
          "type": "address"
        }
      ],
      "stateMutability": "view",
      "type": "function"
    },
    {
      "inputs": [
        {
          "internalType": "uint256",
          "name": "",
          "type": "uint256"
        }
      ],
      "name": "posts",
      "outputs": [
        {
          "internalType": "uint256",
          "name": "price",
          "type": "uint256"
        },
        {
          "internalType": "address",
          "name": "creator",
          "type": "address"
        },
        {
          "internalType": "string",
          "name": "contentHash",
          "type": "string"
        },
        {
          "internalType": "string",
          "name": "previewHash",
          "type": "string"
        },
        {
          "internalType": "bool",
          "name": "disabled",
          "type": "bool"
        }
      ],
      "stateMutability": "view",
      "type": "function"
    },
    {
      "inputs": [
        {
          "internalType": "address",
          "name": "",
          "type": "address"
        },
        {
          "internalType": "uint256",
          "name": "",
          "type": "uint256"
        }
      ],
      "name": "postsCreatedArray",
      "outputs": [
        {
          "internalType": "uint256",
          "name": "",
          "type": "uint256"
        }
      ],
      "stateMutability": "view",
      "type": "function"
    },
    {
      "inputs": [
        {
          "internalType": "address",
          "name": "",
          "type": "address"
        },
        {
          "internalType": "uint256",
          "name": "",
          "type": "uint256"
        }
      ],
      "name": "postsOwned",
      "outputs": [
        {
          "internalType": "bool",
          "name": "",
          "type": "bool"
        }
      ],
      "stateMutability": "view",
      "type": "function"
    },
    {
      "inputs": [
        {
          "internalType": "address",
          "name": "purchaser",
          "type": "address"
        },
        {
          "internalType": "uint256",
          "name": "postId",
          "type": "uint256"
        }
      ],
      "name": "purchasePost",
      "outputs": [],
      "stateMutability": "payable",
      "type": "function"
    },
    {
      "inputs": [],
      "name": "renounceOwnership",
      "outputs": [],
      "stateMutability": "nonpayable",
      "type": "function"
    },
    {
      "inputs": [
        {
          "internalType": "uint8",
          "name": "newFee",
          "type": "uint8"
        }
      ],
      "name": "setProtocolFee",
      "outputs": [],
      "stateMutability": "nonpayable",
      "type": "function"
    },
    {
      "inputs": [
        {
          "internalType": "address",
          "name": "newTreasury",
          "type": "address"
        }
      ],
      "name": "setTreasury",
      "outputs": [],
      "stateMutability": "nonpayable",
      "type": "function"
    },
    {
      "inputs": [
        {
          "internalType": "uint256",
          "name": "postId",
          "type": "uint256"
        },
        {
          "internalType": "bool",
          "name": "disabled",
          "type": "bool"
        }
      ],
      "name": "toggleNewPurchasesEnabled",
      "outputs": [],
      "stateMutability": "nonpayable",
      "type": "function"
    },
    {
      "inputs": [
        {
          "internalType": "address",
          "name": "newOwner",
          "type": "address"
        }
      ],
      "name": "transferOwnership",
      "outputs": [],
      "stateMutability": "nonpayable",
      "type": "function"
    },
    {
      "inputs": [
        {
          "internalType": "uint256",
          "name": "postId",
          "type": "uint256"
        },
        {
          "internalType": "uint256",
          "name": "price",
          "type": "uint256"
        }
      ],
      "name": "updatePrice",
      "outputs": [],
      "stateMutability": "nonpayable",
      "type": "function"
    }
  ],
  "bytecode": "0x60806040526000600860006101000a81548160ff021916908360ff160217905550604051620025c0380380620025c08339818101604052810190620000459190620001f4565b6200006562000059620000be60201b60201c565b620000c660201b60201c565b6200007681620000c660201b60201c565b80600860016101000a81548173ffffffffffffffffffffffffffffffffffffffff021916908373ffffffffffffffffffffffffffffffffffffffff1602179055505062000226565b600033905090565b60008060009054906101000a900473ffffffffffffffffffffffffffffffffffffffff169050816000806101000a81548173ffffffffffffffffffffffffffffffffffffffff021916908373ffffffffffffffffffffffffffffffffffffffff1602179055508173ffffffffffffffffffffffffffffffffffffffff168173ffffffffffffffffffffffffffffffffffffffff167f8be0079c531659141344cd1fd0a4f28419497f9722a3daafe3b4186f6b6457e060405160405180910390a35050565b600080fd5b600073ffffffffffffffffffffffffffffffffffffffff82169050919050565b6000620001bc826200018f565b9050919050565b620001ce81620001af565b8114620001da57600080fd5b50565b600081519050620001ee81620001c3565b92915050565b6000602082840312156200020d576200020c6200018a565b5b60006200021d84828501620001dd565b91505092915050565b61238a80620002366000396000f3fe6080604052600436106100e85760003560e01c806376b18a651161008a578063bf62dfb211610059578063bf62dfb2146102e7578063d369f73b14610324578063f0f4426014610361578063f2fde38b1461038a576100e8565b806376b18a651461024e57806382367b2d146102775780638da5cb5b146102a0578063b090b65f146102cb576100e8565b806351533887116100c6578063515338871461019457806353f1b3ea146101d1578063715018a61461020e578063742d931a14610225576100e8565b80630b1e7f83146100ed57806336c1b9041461012e5780634e91f8111461016b575b600080fd5b3480156100f957600080fd5b50610114600480360381019061010f9190611724565b6103b3565b604051610125959493929190611855565b60405180910390f35b34801561013a57600080fd5b50610155600480360381019061015091906118e2565b610526565b6040516101629190611922565b60405180910390f35b34801561017757600080fd5b50610192600480360381019061018d9190611976565b610555565b005b3480156101a057600080fd5b506101bb60048036038101906101b691906119a3565b61067d565b6040516101c891906119e3565b60405180910390f35b3480156101dd57600080fd5b506101f860048036038101906101f391906119fe565b6106cb565b6040516102059190611922565b60405180910390f35b34801561021a57600080fd5b506102236106fa565b005b34801561023157600080fd5b5061024c60048036038101906102479190611aa3565b610782565b005b34801561025a57600080fd5b5061027560048036038101906102709190611b64565b610a2b565b005b34801561028357600080fd5b5061029e600480360381019061029991906119a3565b610bd1565b005b3480156102ac57600080fd5b506102b5610ccc565b6040516102c291906119e3565b60405180910390f35b6102e560048036038101906102e091906119fe565b610cf5565b005b3480156102f357600080fd5b5061030e600480360381019061030991906119fe565b6112d8565b60405161031b9190611ba4565b60405180910390f35b34801561033057600080fd5b5061034b600480360381019061034691906118e2565b611309565b6040516103589190611922565b60405180910390f35b34801561036d57600080fd5b5061038860048036038101906103839190611bbf565b611399565b005b34801561039657600080fd5b506103b160048036038101906103ac9190611bbf565b611459565b005b60046020528060005260406000206000915090508060000154908060010160009054906101000a900473ffffffffffffffffffffffffffffffffffffffff169080600201805461040290611c1b565b80601f016020809104026020016040519081016040528092919081815260200182805461042e90611c1b565b801561047b5780601f106104505761010080835404028352916020019161047b565b820191906000526020600020905b81548152906001019060200180831161045e57829003601f168201915b50505050509080600301805461049090611c1b565b80601f01602080910402602001604051908101604052809291908181526020018280546104bc90611c1b565b80156105095780601f106104de57610100808354040283529160200191610509565b820191906000526020600020905b8154815290600101906020018083116104ec57829003601f168201915b5050505050908060040160009054906101000a900460ff16905085565b60036020528160005260406000206020528060005260406000206000915091509054906101000a900460ff1681565b61055d611551565b73ffffffffffffffffffffffffffffffffffffffff1661057b610ccc565b73ffffffffffffffffffffffffffffffffffffffff16146105d1576040517f08c379a00000000000000000000000000000000000000000000000000000000081526004016105c890611c99565b60405180910390fd5b60008160ff161015610618576040517f08c379a000000000000000000000000000000000000000000000000000000000815260040161060f90611d05565b60405180910390fd5b60128160ff16111561065f576040517f08c379a000000000000000000000000000000000000000000000000000000000815260040161065690611d71565b60405180910390fd5b80600860006101000a81548160ff021916908360ff16021790555050565b6002602052816000526040600020818154811061069957600080fd5b906000526020600020016000915091509054906101000a900473ffffffffffffffffffffffffffffffffffffffff1681565b60066020528160005260406000206020528060005260406000206000915091509054906101000a900460ff1681565b610702611551565b73ffffffffffffffffffffffffffffffffffffffff16610720610ccc565b73ffffffffffffffffffffffffffffffffffffffff1614610776576040517f08c379a000000000000000000000000000000000000000000000000000000000815260040161076d90611c99565b60405180910390fd5b6107806000611559565b565b60008110156107c6576040517f08c379a00000000000000000000000000000000000000000000000000000000081526004016107bd90611ddd565b60405180910390fd5b6107d0600161161d565b60006107dc6001611633565b90506040518060a001604052808381526020013373ffffffffffffffffffffffffffffffffffffffff16815260200187878080601f016020809104026020016040519081016040528093929190818152602001838380828437600081840152601f19601f82011690508083019250505050505050815260200185858080601f016020809104026020016040519081016040528093929190818152602001838380828437600081840152601f19601f82011690508083019250505050505050815260200160001515815250600460008381526020019081526020016000206000820151816000015560208201518160010160006101000a81548173ffffffffffffffffffffffffffffffffffffffff021916908373ffffffffffffffffffffffffffffffffffffffff1602179055506040820151816002019080519060200190610926929190611641565b506060820151816003019080519060200190610943929190611641565b5060808201518160040160006101000a81548160ff021916908315150217905550905050600760003373ffffffffffffffffffffffffffffffffffffffff1673ffffffffffffffffffffffffffffffffffffffff1681526020019081526020016000208190806001815401808255809150506001900390600052602060002001600090919091909150553373ffffffffffffffffffffffffffffffffffffffff167f67d7c5d5722b1111c2cfcbdd0a1bb0f68912cc9d69372906bd37128042cfb0ab8787878787604051610a1b959493929190611e39565b60405180910390a2505050505050565b6004600083815260200190815260200160002060010160009054906101000a900473ffffffffffffffffffffffffffffffffffffffff1673ffffffffffffffffffffffffffffffffffffffff163373ffffffffffffffffffffffffffffffffffffffff1614610acf576040517f08c379a0000000000000000000000000000000000000000000000000000000008152600401610ac690611ece565b60405180910390fd5b8015156004600084815260200190815260200160002060040160009054906101000a900460ff1615151415610b39576040517f08c379a0000000000000000000000000000000000000000000000000000000008152600401610b3090611f3a565b60405180910390fd5b806004600084815260200190815260200160002060040160006101000a81548160ff0219169083151502179055508015610b9f57817f0c48d600979c2ea5df710357b6601b1c93f522872a42b779eeaff0dbe388adbb60405160405180910390a2610bcd565b817f9f5aa107147e8677760aa7868a3dbea6ad28dcc7f25cc65b61cdfa234e958a5c60405160405180910390a25b5050565b6004600083815260200190815260200160002060010160009054906101000a900473ffffffffffffffffffffffffffffffffffffffff1673ffffffffffffffffffffffffffffffffffffffff163373ffffffffffffffffffffffffffffffffffffffff1614610c75576040517f08c379a0000000000000000000000000000000000000000000000000000000008152600401610c6c90611fa6565b60405180910390fd5b806004600084815260200190815260200160002060000181905550807f945c1c4e99aa89f648fbfe3df471b916f719e16d960fcec0737d4d56bd69683883604051610cc09190611ba4565b60405180910390a25050565b60008060009054906101000a900473ffffffffffffffffffffffffffffffffffffffff16905090565b6000600460008381526020019081526020016000206040518060a0016040529081600082015481526020016001820160009054906101000a900473ffffffffffffffffffffffffffffffffffffffff1673ffffffffffffffffffffffffffffffffffffffff1673ffffffffffffffffffffffffffffffffffffffff168152602001600282018054610d8590611c1b565b80601f0160208091040260200160405190810160405280929190818152602001828054610db190611c1b565b8015610dfe5780601f10610dd357610100808354040283529160200191610dfe565b820191906000526020600020905b815481529060010190602001808311610de157829003601f168201915b50505050508152602001600382018054610e1790611c1b565b80601f0160208091040260200160405190810160405280929190818152602001828054610e4390611c1b565b8015610e905780601f10610e6557610100808354040283529160200191610e90565b820191906000526020600020905b815481529060010190602001808311610e7357829003601f168201915b505050505081526020016004820160009054906101000a900460ff16151515158152505090508060000151341015610efd576040517f08c379a0000000000000000000000000000000000000000000000000000000008152600401610ef490612012565b60405180910390fd5b6000816020015190506000600860019054906101000a900473ffffffffffffffffffffffffffffffffffffffff16905060006064600860009054906101000a900460ff1660ff1634610f4f9190612061565b610f5991906120ea565b905060008134610f69919061211b565b905060008473ffffffffffffffffffffffffffffffffffffffff1682604051610f9190612180565b60006040518083038185875af1925050503d8060008114610fce576040519150601f19603f3d011682016040523d82523d6000602084013e610fd3565b606091505b5050905080611017576040517f08c379a000000000000000000000000000000000000000000000000000000000815260040161100e90612207565b60405180910390fd5b60008311156110ce5760008473ffffffffffffffffffffffffffffffffffffffff168460405161104690612180565b60006040518083038185875af1925050503d8060008114611083576040519150601f19603f3d011682016040523d82523d6000602084013e611088565b606091505b50509050806110cc576040517f08c379a00000000000000000000000000000000000000000000000000000000081526004016110c390612273565b60405180910390fd5b505b60016003600089815260200190815260200160002060008a73ffffffffffffffffffffffffffffffffffffffff1673ffffffffffffffffffffffffffffffffffffffff16815260200190815260200160002060006101000a81548160ff0219169083151502179055506001600660008a73ffffffffffffffffffffffffffffffffffffffff1673ffffffffffffffffffffffffffffffffffffffff168152602001908152602001600020600089815260200190815260200160002060006101000a81548160ff0219169083151502179055508760026000898152602001908152602001600020600260008a815260200190815260200160002080549050815481106111dc576111db612293565b5b9060005260206000200160006101000a81548173ffffffffffffffffffffffffffffffffffffffff021916908373ffffffffffffffffffffffffffffffffffffffff160217905550600560008973ffffffffffffffffffffffffffffffffffffffff1673ffffffffffffffffffffffffffffffffffffffff168152602001908152602001600020879080600181540180825580915050600190039060005260206000200160009091909190915055868873ffffffffffffffffffffffffffffffffffffffff167ffd656fb685c341681b462ffa5be492574215a3624ad9d12486dc6b090ba304fe60405160405180910390a35050505050505050565b600760205281600052604060002081815481106112f457600080fd5b90600052602060002001600091509150505481565b600080600460008581526020019081526020016000206000015414156113325760019050611393565b6003600084815260200190815260200160002060008373ffffffffffffffffffffffffffffffffffffffff1673ffffffffffffffffffffffffffffffffffffffff16815260200190815260200160002060009054906101000a900460ff1690505b92915050565b6113a1611551565b73ffffffffffffffffffffffffffffffffffffffff166113bf610ccc565b73ffffffffffffffffffffffffffffffffffffffff1614611415576040517f08c379a000000000000000000000000000000000000000000000000000000000815260040161140c90611c99565b60405180910390fd5b80600860016101000a81548173ffffffffffffffffffffffffffffffffffffffff021916908373ffffffffffffffffffffffffffffffffffffffff16021790555050565b611461611551565b73ffffffffffffffffffffffffffffffffffffffff1661147f610ccc565b73ffffffffffffffffffffffffffffffffffffffff16146114d5576040517f08c379a00000000000000000000000000000000000000000000000000000000081526004016114cc90611c99565b60405180910390fd5b600073ffffffffffffffffffffffffffffffffffffffff168173ffffffffffffffffffffffffffffffffffffffff161415611545576040517f08c379a000000000000000000000000000000000000000000000000000000000815260040161153c90612334565b60405180910390fd5b61154e81611559565b50565b600033905090565b60008060009054906101000a900473ffffffffffffffffffffffffffffffffffffffff169050816000806101000a81548173ffffffffffffffffffffffffffffffffffffffff021916908373ffffffffffffffffffffffffffffffffffffffff1602179055508173ffffffffffffffffffffffffffffffffffffffff168173ffffffffffffffffffffffffffffffffffffffff167f8be0079c531659141344cd1fd0a4f28419497f9722a3daafe3b4186f6b6457e060405160405180910390a35050565b6001816000016000828254019250508190555050565b600081600001549050919050565b82805461164d90611c1b565b90600052602060002090601f01602090048101928261166f57600085556116b6565b82601f1061168857805160ff19168380011785556116b6565b828001600101855582156116b6579182015b828111156116b557825182559160200191906001019061169a565b5b5090506116c391906116c7565b5090565b5b808211156116e05760008160009055506001016116c8565b5090565b600080fd5b600080fd5b6000819050919050565b611701816116ee565b811461170c57600080fd5b50565b60008135905061171e816116f8565b92915050565b60006020828403121561173a576117396116e4565b5b60006117488482850161170f565b91505092915050565b61175a816116ee565b82525050565b600073ffffffffffffffffffffffffffffffffffffffff82169050919050565b600061178b82611760565b9050919050565b61179b81611780565b82525050565b600081519050919050565b600082825260208201905092915050565b60005b838110156117db5780820151818401526020810190506117c0565b838111156117ea576000848401525b50505050565b6000601f19601f8301169050919050565b600061180c826117a1565b61181681856117ac565b93506118268185602086016117bd565b61182f816117f0565b840191505092915050565b60008115159050919050565b61184f8161183a565b82525050565b600060a08201905061186a6000830188611751565b6118776020830187611792565b81810360408301526118898186611801565b9050818103606083015261189d8185611801565b90506118ac6080830184611846565b9695505050505050565b6118bf81611780565b81146118ca57600080fd5b50565b6000813590506118dc816118b6565b92915050565b600080604083850312156118f9576118f86116e4565b5b60006119078582860161170f565b9250506020611918858286016118cd565b9150509250929050565b60006020820190506119376000830184611846565b92915050565b600060ff82169050919050565b6119538161193d565b811461195e57600080fd5b50565b6000813590506119708161194a565b92915050565b60006020828403121561198c5761198b6116e4565b5b600061199a84828501611961565b91505092915050565b600080604083850312156119ba576119b96116e4565b5b60006119c88582860161170f565b92505060206119d98582860161170f565b9150509250929050565b60006020820190506119f86000830184611792565b92915050565b60008060408385031215611a1557611a146116e4565b5b6000611a23858286016118cd565b9250506020611a348582860161170f565b9150509250929050565b600080fd5b600080fd5b600080fd5b60008083601f840112611a6357611a62611a3e565b5b8235905067ffffffffffffffff811115611a8057611a7f611a43565b5b602083019150836001820283011115611a9c57611a9b611a48565b5b9250929050565b600080600080600060608688031215611abf57611abe6116e4565b5b600086013567ffffffffffffffff811115611add57611adc6116e9565b5b611ae988828901611a4d565b9550955050602086013567ffffffffffffffff811115611b0c57611b0b6116e9565b5b611b1888828901611a4d565b93509350506040611b2b8882890161170f565b9150509295509295909350565b611b418161183a565b8114611b4c57600080fd5b50565b600081359050611b5e81611b38565b92915050565b60008060408385031215611b7b57611b7a6116e4565b5b6000611b898582860161170f565b9250506020611b9a85828601611b4f565b9150509250929050565b6000602082019050611bb96000830184611751565b92915050565b600060208284031215611bd557611bd46116e4565b5b6000611be3848285016118cd565b91505092915050565b7f4e487b7100000000000000000000000000000000000000000000000000000000600052602260045260246000fd5b60006002820490506001821680611c3357607f821691505b60208210811415611c4757611c46611bec565b5b50919050565b7f4f776e61626c653a2063616c6c6572206973206e6f7420746865206f776e6572600082015250565b6000611c836020836117ac565b9150611c8e82611c4d565b602082019050919050565b60006020820190508181036000830152611cb281611c76565b9050919050565b7f7765206e6f207061792066656500000000000000000000000000000000000000600082015250565b6000611cef600d836117ac565b9150611cfa82611cb9565b602082019050919050565b60006020820190508181036000830152611d1e81611ce2565b9050919050565b7f6c657473206e6f20676574206372617a79206e6f770000000000000000000000600082015250565b6000611d5b6015836117ac565b9150611d6682611d25565b602082019050919050565b60006020820190508181036000830152611d8a81611d4e565b9050919050565b7f7765206e6f2070617920796f7500000000000000000000000000000000000000600082015250565b6000611dc7600d836117ac565b9150611dd282611d91565b602082019050919050565b60006020820190508181036000830152611df681611dba565b9050919050565b82818337600083830152505050565b6000611e1883856117ac565b9350611e25838584611dfd565b611e2e836117f0565b840190509392505050565b60006060820190508181036000830152611e54818789611e0c565b90508181036020830152611e69818587611e0c565b9050611e786040830184611751565b9695505050505050565b7f6e6f7420757220706f73742063616e742064697361626c650000000000000000600082015250565b6000611eb86018836117ac565b9150611ec382611e82565b602082019050919050565b60006020820190508181036000830152611ee781611eab565b9050919050565b7f616c726561647920736574206c696b6520746861740000000000000000000000600082015250565b6000611f246015836117ac565b9150611f2f82611eee565b602082019050919050565b60006020820190508181036000830152611f5381611f17565b9050919050565b7f6e6f7420757220706f73742063616e74206368616e6765207072696365000000600082015250565b6000611f90601d836117ac565b9150611f9b82611f5a565b602082019050919050565b60006020820190508181036000830152611fbf81611f83565b9050919050565b7f706179206d6f7265000000000000000000000000000000000000000000000000600082015250565b6000611ffc6008836117ac565b915061200782611fc6565b602082019050919050565b6000602082019050818103600083015261202b81611fef565b9050919050565b7f4e487b7100000000000000000000000000000000000000000000000000000000600052601160045260246000fd5b600061206c826116ee565b9150612077836116ee565b9250817fffffffffffffffffffffffffffffffffffffffffffffffffffffffffffffffff04831182151516156120b0576120af612032565b5b828202905092915050565b7f4e487b7100000000000000000000000000000000000000000000000000000000600052601260045260246000fd5b60006120f5826116ee565b9150612100836116ee565b9250826121105761210f6120bb565b5b828204905092915050565b6000612126826116ee565b9150612131836116ee565b92508282101561214457612143612032565b5b828203905092915050565b600081905092915050565b50565b600061216a60008361214f565b91506121758261215a565b600082019050919050565b600061218b8261215d565b9150819050919050565b7f4661696c656420746f2073656e64207061796d656e7420746f2063726561746f60008201527f7200000000000000000000000000000000000000000000000000000000000000602082015250565b60006121f16021836117ac565b91506121fc82612195565b604082019050919050565b60006020820190508181036000830152612220816121e4565b9050919050565b7f4661696c656420746f2073656e642066656520746f2075730000000000000000600082015250565b600061225d6018836117ac565b915061226882612227565b602082019050919050565b6000602082019050818103600083015261228c81612250565b9050919050565b7f4e487b7100000000000000000000000000000000000000000000000000000000600052603260045260246000fd5b7f4f776e61626c653a206e6577206f776e657220697320746865207a65726f206160008201527f6464726573730000000000000000000000000000000000000000000000000000602082015250565b600061231e6026836117ac565b9150612329826122c2565b604082019050919050565b6000602082019050818103600083015261234d81612311565b905091905056fea264697066735822122086caa154e33efa5890a12f40cdf649f565e4f21f5dbb5173fbcabd6967ae52e164736f6c63430008090033",
  "linkReferences": {},
  "deployedLinkReferences": {}
}